:020000040800F2
:10000000200800209D01000819090008E5070008E4
:1000100015090008D90700084D0E0008000000006F
:10002000000000000000000000000000210900089E
:10003000DD070008000000001D090008E1090008B4
:10004000B7010008B7010008B7010008B7010008B0
:10005000B7010008B7010008B7010008B7010008A0
:10006000B7010008B7010008B7010008B701000890
:10007000B7010008B7010008B7010008B701000880
:10008000B7010008B7010008B7010008B701000870
:10009000B7010008B7010008B7010008E107000830
:1000A000B7010008B7010008B7010008B701000850
:1000B000B7010008B7010008B7010008B701000840
:1000C000B7010008B7010008B7010008B701000830
:1000D000B7010008390C0008B7010008B701000893
:1000E000B7010008B7010008B7010008B701000810
:1000F000B7010008B7010008B7010008B701000800
:10010000B7010008B7010008B7010008B7010008EF
:10011000B7010008B7010008B7010008B7010008DF
:10012000B7010008B7010008B7010008B7010008CF
:10013000B7010008B7010008B7010008B7010008BF
:10014000B7010008B7010008B7010008B7010008AF
:10015000B7010008B7010008B7010008B70100089F
:10016000B7010008B7010008B7010008B70100088F
:10017000B7010008B7010008B7010008000000003F
:10018000B7010008B7010008DFF80CD000F0DAFA78
:100190000048004741110008200800200648804719
:1001A00006480047FEE7FEE7FEE7FEE7FEE7FEE75C
:1001B000FEE7FEE7FEE7FEE7E50900088901000823
:1001C0002DE9FE4F81EA030404F0004421F00041D0
:1001D00000944FF0000B23F0004350EA01045ED07E
:1001E00052EA03045BD0C3F30A54C1F30A552C440A
:1001F000A4F2F3340194A0FB0254C1F3130141F4BF
:100200008011C3F3130343F4801301FB024400FB8A
:10021000034E840A970A44EA815447EA8357A4FBB1
:10022000076802958D0A05FB07854FEA932C04FBAE
:100230000C542705029D4FEA065847EA1637B5EBDE
:1002400008056EEB070C870E920E47EA811742EA0B
:100250008312A7FB0201B6EB0B0164EB00042B0D2C
:1002600043EA0C335E1844EB1C50DA465146E7FB78
:100270000201C5F313044FEA0B3343EA14534FEA68
:100280000432019C43EA0603A4F10C040294009C8E
:10029000CDE900B400F0C2F803B0BDE8F08F002053
:1002A0000146F9E700F0004230F000400AD0C10DED
:1002B00001F56071C0F3160042EA0151C20840071F
:1002C0001143704700200146704701F0004330B4ED
:1002D00021F0004150EA010206D00A0DA2F5607239
:1002E000C1F31301002A02DC30BC00207047440F28
:1002F00044EAC104C100E01830BC00EBC25000F079
:1003000047B830B50B46014600202022012409E001
:1003100021FA02F59D4205D303FA02F5491B04FABE
:1003200002F52844151EA2F10102F1DC30BD2DE9D1
:10033000F05F0546002092469B4688460646814669
:1003400040241BE0284641464746224600F021FA59
:1003500053465A46C01A914110D3114618462246B8
:1003600000F008FA2D1A67EB01084F4622460120DB
:10037000002100F0FFF917EB00094E41201EA4F107
:100380000104DFDC484631462A464346BDE8F09F7B
:100390000029A8BF7047401C490008BF20F0010099
:1003A000704710B4B0FA80FC00FA0CF050EA010477
:1003B00004BF10BC704749B1CCF1200421FA04F409
:1003C00011FA0CF118BF012121430843A3EB0C01E2
:1003D000CB1D4FEA00614FEA102042BF002010BC45
:1003E000704700EBC35010440029A4BF10BC7047F5
:1003F000401C490008BF20F0010010BC704710B538
:10040000141E73F1000408DA401C41F10001921837
:100410005B411A4301D120F0010010BD2DE9F04DE0
:1004200092469B4611B1B1FA81F202E0B0FA80F235
:100430002032904600F09EF904460F4640EA0A003A
:1004400041EA0B0153465A46084313D0114653EA7A
:10045000010019D0C8F14002504600F09AF9054653
:100460000E4650465946424600F084F9084305D0EE
:10047000012004E020463946BDE8F08D0020054308
:1004800046EAE0762C4337430A986305E40AA0EB7A
:1004900008000022FD0A44EA47540A3002D5002031
:1004A0000146E9E7010510196941DDE90845001930
:1004B0006941BDE8F04DA2E72DE9FE4F804681EA93
:1004C0000300C00F0C46009021F0004123F00045CE
:1004D000B8EB0200A94105D24046214690461C4691
:1004E0000B46024623F00040104347D0270DC7F3C8
:1004F0000A00C3F30A510290401A019040286BDAB7
:10050000C3F3130040F4801B0098924620B10023EF
:10051000D2EB030A63EB0B0B01985946C0F1400282
:10052000504600F027F906460D4650465946019AB6
:1005300000F03FF910EB08006141002487EA1152F6
:1005400084EAE7731A4340D0009A62B3019A012A01
:100550004FEA075215DC001B61EB02014FF000422D
:1005600002EA0752CDE90042001C41F580113246F3
:100570002B46FFF753FF03B0BDE8F08F40462146FE
:10058000F9E7001B61EB0201001C41F58013001824
:100590005B412018A2F5001747EB030140EAD57034
:1005A000B6196D4111E06D084FEA360645EAC0758F
:1005B0004FEA0752001B61EB0201001C41F580115C
:1005C00049084FEA30000019514132462B4603B02A
:1005D000BDE8F04FFFF713BF009801224000002351
:1005E000D0EB020263EBE073009821464FEAE0741F
:1005F000B8EB000061EB0401E9E783F000435BE73F
:1006000081F0004158E72DE9F04D81EA030404F040
:10061000004B21F0004514464FF0000A23F0004142
:1006200050EA050220D054EA01021DD0C5F30A5752
:100630000246C5F31303C1F31300C1F30A5640F495
:10064000801543F48013A7EB0608101BD64608F26A
:10065000FD3873EB050002D308F1010801E09218A0
:100660005B41B8F1000F03DA00200146BDE8F08DD0
:1006700000204FF48011064684460EE0171B73EBF2
:10068000050705D3121B63EB050306434CEA010C77
:1006900049084FEA300092185B4150EA0107EDD15A
:1006A00052EA030012D082EA040083EA05010843FB
:1006B00005D0101BAB4106D20122002306E0002228
:1006C0004FF0004302E06FF0010253101AEB0600F6
:1006D0004CEB085110EB0A0041EB0B01BDE8F04D6B
:1006E000FFF78DBEC1F30A52C1F3130140F2FF338D
:1006F00041F480119A4202DA00200146704740F22C
:1007000033439A42A2F2334202DC524200F041B833
:1007100000F030B830B5041E71F1000404DB4FF076
:100720000044404264EB0101141E73F1000405DB38
:100730001C464FF00043524263EB0403994208BF4A
:10074000904230BD1CB5094800900948019005460B
:10075000009C06E0E06840F0010394E80700984739
:100760001034AC42F6D3FFF713FD0000C02300089D
:10077000E0230008202A04DB203A00FA02F10020DE
:1007800070479140C2F1200320FA03F319439040CF
:100790007047202A04DB203A21FA02F0002170473A
:1007A00021FA02F3D040C2F12002914008431946D9
:1007B0007047202A06DBCB17203A41FA02F043EAC1
:1007C000E07306E041FA02F3D040C2F1200291400A
:1007D0000843194670470000FEE70000FEE70000EE
:1007E00070470000FEE7000080B540F6024000F0D0
:1007F00087FD40F60000C4F20200002101220F2311
:10080000BDE8804000F04EBC10B5044600F08AF808
:10081000012C03D034B9BBEE0E1A01E0B3EE0E1A70
:1008200030EE010A00F088F800F07CF810EE100AB3
:10083000FFF738FD024603A00B46BDE8104001F06B
:100840002FB900BF75706461746520616E676C6557
:100850003A252E31660A00007047000070B540F658
:100860000004C4F202042046012100F015FC40F20D
:100870000806C2F200063178884209D005460020F9
:10088000012D02D1FFF7E8FF01E0FFF7BDFF357052
:100890002046022100F000FC40F20906C2F20006E8
:1008A0003178884209D005460120012D02D1FFF799
:1008B000D3FF01E0FFF7A8FF35702046042100F0C8
:1008C000EBFB40F20A06C2F200063178884209D0FA
:1008D00005460220012D02D1FFF7BEFF01E0FFF720
:1008E00093FF35702046082100F0D6FB40F20B053F
:1008F000C2F200052978884208BF70BD0446032073
:10090000012C03D1FFF7A8FF2C7070BDFFF77CFF0F
:100910002C7070BDFEE70000FEE70000FEE700005F
:10092000FEE7000040F21000C2F2000090ED000A65
:100930007047000070470000B5EE400AF1EE10FA73
:1009400002DA9FED210A08E09FED201AB4EE410A79
:10095000F1EE10FAC8BFB0EE410A80B59FED1B1A48
:100960009FED1B2A80EE011A9FED1B3A40F210000A
:10097000C2F2000080ED000A21EE021A9FED152A56
:1009800031EE021A81EE031A11EE100AFFF78AFC0B
:100990009FED0B0B53EC102BFFF712FCFFF795FCB0
:1009A0009FED0E0A01EE100A44F2000021EE000A4B
:1009B000C4F201000021BDE8804000F0BFB800BFD4
:1009C000666666666666EE3F00000000000034431F
:1009D0000000FA440000FA4300409C460000C84270
:1009E00000F042BA81B04EF68851CEF200010A689A
:1009F00043F6080042F47002C4F202000A6050F8A4
:100A0000081C41F0010140F8081C00BF50F8081C08
:100A10008907FBD5016841F0800101600021009148
:100A2000009A4F2A06D800BF009A01320092009A1D
:100A3000502AF9D3026842F09002026000910099B6
:100A40004F2905D800990131009100995029F9D317
:100A500001684FF6FF7221F00301016050F8081C95
:100A6000CFF6F662114040F8081C50F8081C21F43B
:100A7000802140F8081C00210160026843F2100246
:100A8000C2F2004240F8042C416050F8081C41F4C6
:100A9000803140F8081C4FF6FF7100BF50F8082C59
:100AA000920303D40029A1F10101F7D150F8081CE9
:100AB0008903FBD5826B47F2000142F08052C4F2F9
:100AC000000182630A6842F440420A6002680260E0
:100AD000026842F400420260026842F4A0520260DE
:100AE00045F20842C0F2407240F8042C50F8082C3D
:100AF00042F0807240F8082C50F8082C9201FBD587
:100B00000A6842F480320A604A68D203FCD50A6857
:100B100042F400320A6000BF4A689203FCD50168C3
:100B200021F003010160016841F00201016000BF92
:100B300001680907FCD501B0704700009FED0F1A4E
:100B4000B4EE410AF1EE10FAB0EE412A08DCB5EE3F
:100B5000400AB0EE402AF1EE10FAB8BF9FED082A25
:100B600090ED0B0AB8EE400A22EE000A80EE010A70
:100B7000BCEEC00A10EE102A00F044BD0000C842CE
:100B80000000000070B584B04FF0807000F0E8FB0A
:100B900040F20400C2F20000006841F25971CDF247
:100BA000B711A0FB010641F2101000F0A9FB44F2BE
:100BB0000004C4F20104204600F032FD6D462846D0
:100BC00000F02EFE6320ADF800004FF0FF3000EB88
:100BD000163002902046294600F0CCFD204600F059
:100BE000C3FD40F6044000F08BFB04F55045284659
:100BF00002210022202300F055FA2846002103227A
:100C0000202300F079FA28460321202200F00CFA74
:100C10006D46284600F0FEFC0120ADF8000020469D
:100C200000212A4600F0D4FB20460021602200F07B
:100C3000CDFC04B070BD0000B0B546F20044C4F273
:100C40000204A4F5AA3540F20431C0F2040128469A
:100C500000F0F0FE012818BFB0BD284600F050FE9D
:100C60002046022100F0C8F9C0F5806140F218402A
:100C7000C2F20000016040F21800C2F2000000223F
:100C8000425400F0D7F82046022100F001F9204636
:100C90000221202200F044F920460221BDE8B040A4
:100CA00000F000B92DE9F04389B040F6164000F09D
:100CB00027FB41F20009C4F2010909F5AA352846CB
:100CC000072100F005F9E846404600F089F9402088
:100CD0000690002709F10404012628460721424610
:100CE000039700940196CDE90476089700F034F953
:100CF00028460721042200F0DFF840F6164000F0F5
:100D0000FFFA2846022100F0E3F8E846404600F0EA
:100D100067F940F21800C2F20000CDE902074FF473
:100D20008060CDE907072846022142460697CDE9B3
:100D30000046CDE9047600F00FF92846022104228E
:100D400000F0BAF82846022100F0ACF84FF44060F9
:100D500000F0D6FA09F570452846022100224FF42A
:100D6000007300F09FF92846002102224FF400731F
:100D700000F0C2F9284607214FF4007200F054F940
:100D80004FF4406000F0BCFA2846022100224FF4E4
:100D9000806300F087F92846002102224FF4806327
:100DA00000F0AAF9284607214FF4806200F03CF9D0
:100DB00041F2041000F0A4FA484600F0A9FD4846AC
:100DC0004FF4E13100F034FD4846002100F060FEB0
:100DD0004846002100F040FE4846002100F04AFE4F
:100DE0004846002100F084FD4846082100F04AFEF4
:100DF0004846042100F038FE4846802100F0F6FD08
:100E00004846402100F0E8FD25200221022200F0A2
:100E1000BBF9484640F2053100F000FE48464FF469
:100E2000417100F0FBFD484600F0EAFD09B0BDE865
:100E3000F0830000024601A000F032BE72656376C6
:100E40005B25645D2D3E2025730A0000FEE700004F
:100E50004FF47A71414340F21400C2F20000016085
:100E600001680029FCD1704740F21C40C2F200002A
:100E700001680131016040F21400C2F20000016813
:100E8000002908BF70470168013901607047000000
:100E900001EB410100EBC100016921F00101016199
:100EA0007047000001EB410100EBC100016941F016
:100EB000010101617047000001EB410100EBC1003D
:100EC000016921F0606141EA4261016170470000FF
:100ED00001EB410200EBC20213694FF03D0C23F01D
:100EE000010313610023136153619361D3611362A2
:100EF000212353620A1F28BFD1B201EB410301F045
:100F000002014FF00C024FEA410138BF082201EB09
:100F1000430113580CFA01F11943115070470000B6
:100F20000B1F38BF0B46D9B24FEA410151FA83F18A
:100F300003F002034FF00C0C4FEA430338BF4FF0AD
:100F4000080C03EB41015CF8003002FA01F119438F
:100F50004CF800107047000080B501EB410100EB38
:100F6000C100416A48F23F7321F0040141621168F7
:100F7000CFF6FC7381619168C161D16941610169FA
:100F8000D2F818E001EA030C116A136941EA0C0176
:100F900041EA830141EA0E01194301615368016985
:100FA000012B06D0002B14BF41F4004141F4007125
:100FB00001E021F400710161D1680369002923F483
:100FC000806308BF03F580630361516902690029EA
:100FD00022F4807208BF02F58072026180BD0000B9
:100FE00000210122C0E90012C0E90212C0E9041286
:100FF000C0E906110162704701EB410100EBC1003D
:1010000040697047B0B541F20005C4F201050446DD
:10101000C1B2284600F078FC2846072100F0F6FC13
:101020000028F9D02046B0BDF0B5D0F820E0D0F8C7
:1010300024C000230F27002505E000BF0135082D3F
:1010400003F104030CD022FA05F6F607F6D007FAEE
:1010500003F62EEA060601FA03F446EA040EEDE76B
:10106000082300240F2504E00133102B04F10404AD
:101070000CD022FA03F6F607F6D005FA04F62CEAAD
:10108000060701FA04F647EA060CEDE7C0F820E08F
:10109000C0F824C0F0BD00000069084018BF01205E
:1010A000704700002DE9F041D0F800E0D0F80CC006
:1010B00000244FF00308002605E000BF0136102E83
:1010C00004F1020412D023FA06F7FF07F6D008FA5B
:1010D00004F72EEA070E01FA04F54EEA050E2CEA93
:1010E000070702FA04F547EA050CE7E7C0F800E055
:1010F000C0F80CC0BDE8F0810129416814BF9943D4
:1011000019434160B0B5D0F808C000214FF0030E7C
:10111000002404E00134102C01F102010CD023FA68
:1011200004F5ED07F6D00EFA01F52CEA050C02FAEB
:1011300001F54CEA050CEDE7C0F808C0B0BD0000B1
:101140004FF4A06000F074F800F01CF9FFF7AAFD5E
:10115000FFF718FDFFF748FBFFF7ECFB6420FFF7F4
:1011600077FE06A001F016F99FED060AFFF7E4FBF3
:10117000FFF774FB0A20FFF76BFEF9E7696E6974ED
:10118000000000000000B4424EF60C5CCEF2000CF1
:10119000DCF8003003F4E063B3F5E06F01D1042321
:1011A00022E0DCF8003003F4E063B3F5C06F01D156
:1011B000032319E0DCF8003003F4E063B3F5A06F1B
:1011C00001D1022310E0DCF8003003F4E063B3F552
:1011D000806F01D1012307E0DCF8003003F4E06305
:1011E000B3F5407F1CD1002301FA03FCC3F10403D3
:1011F0000F21D94011404EF2001241EA0C01CEF20B
:101200000002090140EA020383F8001300F01F0105
:10121000012303FA01F11C2303EAD0008150704737
:1012200040F20053C0F2FA53CCF80030C9E7000096
:1012300040F080604EF60C5140F0FD70CEF200019F
:101240000860704710B543F60402C4F20202536806
:101250000146C3F3810342F20040022BC0F2F400C6
:1012600006D0012B1FD141F20020C0F27A001AE013
:10127000D2F800C013680CF03F0CC3F3881E13684B
:101280001468C3F30143640241F20024C0F27A04FB
:1012900058BF0446B4FBFCF4022000EB430004FBFF
:1012A0000EF3B3FBF0F0536811A4C3F30313E35C34
:1012B000546842F2B83CC4F38224C0F6000C1CF817
:1012C00004E05268032911D820FA03F3DFE801F0A3
:1012D0000D020407184610BD23FA0EF010BDC2F32C
:1012E00042301CF8000023FA00F010BD002010BDB1
:1012F00000000000000000000102030406070809C6
:1013000043F6000300F01F018009C4F202034FF00E
:10131000010CC2580CFA01F11143C1507047000092
:1013200043F6000300F01F018009C4F202034FF0EE
:10133000010CC2580CFA01F122EA0101C1507047B8
:1013400043F6000300F01F018009C4F202034FF0CE
:10135000010CC2580CFA01F11143C1507047000052
:1013600043F68C0CC4F2020CDCF800206FF08071A4
:1013700042EA0003884208BF22F08073CCF80030B4
:101380007047000040F20400C2F2000000684DF611
:101390008361C4F21B31A0FB01014FF0FF3000EB71
:1013A0009140B0F1807F11D24EF21001CEF20001D7
:1013B00048604EF62350CEF20000F0220270002268
:1013C00007238A600B600270704700BFFEE70000D1
:1013D000032988BF704780B5DFE801F002B042877B
:1013E000016A21F001010162816921F0030181613B
:1013F0001188036A19430162016A002321F0020186
:101400000162B2F804C0D0F820E020F48061C4F298
:10141000010399424EEA0C01016240F0D480016A56
:1014200021F0040101625188036A19430162016AD3
:1014300021F008010162D188036A1943016240F07A
:101440000400016821F48071016011890368194367
:101450000160016821F40071016051890268B0E007
:10146000016A21F480710162C16921F00301C16147
:101470001188036A43EA01210162016A002321F411
:1014800000710162B2F804C0D0F820E020F480615D
:10149000C4F2010399424EEA0C21016240F09380AC
:1014A000016A21F4806101625188036A43EA0121E3
:1014B0000162016A21F400610162D188036A43EA92
:1014C0000121016240F00400016821F480510160B3
:1014D0001189036843EA01110160016821F4005198
:1014E00001605289016812016BE0016A21F48051A8
:1014F0000162C16921F44071C1611188036A43EA44
:1015000001310162016A002321F400510162B2F845
:1015100004C0D0F820E020F48061C4F201039942B5
:101520004EEA0C3101624ED140F00400016821F412
:101530008041016012890168920142E0016A21F054
:1015400010010162816921F4407181611188036A8F
:1015500043EA01110162016A002321F020010162C6
:10156000B2F804C0D0F820E020F48061C4F2010396
:1015700099424EEA0C11016225D1016A21F0400125
:1015800001625188036A43EA01110162016A21F094
:1015900080010162D188036A43EA0111016240F0CF
:1015A0000400016821F4806101601189036843EA45
:1015B00081010160016821F40061016052890168C4
:1015C000920011430160BDE880407047032988BF45
:1015D0007047DFE801F0020D050A50F8181F01E01E
:1015E00050F81C1F21F0700107E050F81C1F01E0AB
:1015F00050F8181F21F4E041120201600168114304
:101600000160704703299EBF890010FA81F0426390
:101610007047000000218160416001607047000058
:1016200010B541F6FF31C4F2000188421BDC40F6E0
:10163000FF31C4F20001884230DD41F2FF31C4F2D3
:101640000001884250DC40F60041C4F200018842AB
:1016500069D041F20001C4F20001884240F082806A
:1016600040F6040476E040F2FF31C4F20101884202
:1016700026DD44F2FF31C4F20101884243DC40F22E
:101680000041C4F20101884250D044F20001C4F28A
:101690000101884266D14FF411645BE0B0F1804FE4
:1016A0004DD040F20041C4F2000188424DD040F6D6
:1016B0000001C4F20001884254D140F6020449E01E
:1016C00041F60041C4F2000188423BD042F20001E1
:1016D000C4F2000188423BD00021C4F201018842DB
:1016E00040D14FF4106435E041F20041C4F20001F2
:1016F00088421ED041F60001C4F20001884231D177
:1017000040F6060426E044F20041C4F2010188429A
:1017100012D044F60001C4F20101884218BF10BD86
:1017200040F6121416E040F6030413E040F60114EC
:1017300010E040F605040DE040F611140AE04FF405
:10174000006407E040F6070404E040F6010401E00D
:1017500040F608042046FFF7F3FD2046BDE81040A0
:10176000FFF7DEBD10BD0000016841F0010101601E
:10177000704700000A8840F2004C826240F6FF3257
:10178000C4F200029042C4F2010C0FDCB0F1804FB1
:1017900019D040F20043C4F20003984213D040F63F
:1017A0000003C4F2000398420DD018E040F6004355
:1017B000C4F20003984206D0604504D00023C4F26E
:1017C000010398420BD1036823F0700303604B8838
:1017D00002681A4302608A8803681A43026080B56F
:1017E00041F20002D1F808E020F48063C4F2000264
:1017F0009342C0F82CE007D0026822F440720260E5
:10180000CA8803681A43026040F48062624504BFDC
:10181000097B0163416941F00101416180BD000024
:1018200000214FF6FF72C0E900118260017370471A
:10183000B0B5044647F2FF70C4F200000D46844282
:101840004FF000000EDC44F6FF31C4F200018C4280
:1018500017DC44F20041C4F200018C421DD044F672
:10186000000116E040F6FF71C4F201018C422FDC4A
:1018700047F60001C4F200018C420ED047F6004149
:1018800007E044F60041C4F200018C4205D045F265
:101890000001C4F200018C4203D102210846FFF787
:1018A000D1FCE168090406D400EB5500B0FBF5F06B
:1018B00080B2A060B0BD400000EB5500B0FBF5F079
:1018C0004FF6F0710140C0F342000844A060B0BD83
:1018D00041F20001C4F201018C424FF00301DDD05E
:1018E00041F20042C4F201029442D7D0D9E700008D
:1018F000D0F8802022F400621143C0F880107047B5
:1019000040686FF35F2070476FF35F21416070475D
:1019100010B547F2FF71C4F20001884214DC44F6AE
:10192000FF31C4F20001884224DC44F20041C4F2D9
:10193000000188423CD044F60001C4F20001884214
:1019400049D140F612043EE040F6FF71C4F20101B5
:1019500088421EDC47F60001C4F2000188422AD00A
:1019600047F60041C4F20001884218BF10BD40F69E
:101970001F0428E044F60041C4F2000188421DD053
:1019800045F20001C4F20001884224D140F614045B
:1019900019E041F20001C4F20101884211D041F284
:1019A0000041C4F20101884215D140F605140AE055
:1019B00040F6110407E040F61E0404E040F613046C
:1019C00001E040F604142046FFF7BAFC2046BDE8CB
:1019D0001040FFF7A5BC10BD426901F0400122F0A4
:1019E000400242614269114341617047426901F01E
:1019F000800122F0800242614269114341617047D7
:101A0000C16841F40051C160704700008A09105854
:101A100001F01F01C84000F00100704701F01F02F3
:101A200089094FF0010C0B580CFA02F21A430A50C4
:101A300070470000C1F3891252F800C08A0D105897
:101A400001F01F03C1F30441C8402CFA03F1084020
:101A500000F0010070470000C26822F4C062C2605A
:101A6000C2681143C1607047C26822F0040211438A
:101A7000C1607047026922F4405202610269114359
:101A800001617047C26822F008021143C1607047CB
:101A9000C26822F48052C260C2681143C1607047BC
:101AA0000FB4054B10B503A9044A029800F0DAF808
:101AB00010BC5DF814FB00000510000800000020B9
:101AC00002E008C8121F08C1002AFAD17047704707
:101AD000002001E001C1121F002AFBD17047000065
:101AE0002DE9FF5F82B00021DDE90430020DDDF851
:101AF00040B0034318D044F61050A2F2FF324243E4
:101B00001514119801281FD0A5EB0B00401C5FEAAB
:101B1000000A4FF000064E4FDFF83891B0465046AD
:101B200015D5CAF1000413E0119801244AA3012835
:101B300001D16FEA0B010298119AC0E90031C0E9A6
:101B4000024206B0BDE8F09FCBF10000DFE704469B
:101B50000021404A491842EB0450CDE9001012E040
:101B6000E00707D032463B4640464946FEF728FB91
:101B70008046894632463B4610461946FEF720FB12
:101B800006460F466410002CEAD1DDE90401DDE9C8
:101B90000023BAF1000F06DAFEF712FB42464B466D
:101BA000FEF70EFB05E0FEF72EFD42464B46FEF724
:101BB0002AFD04460E460022284BFEF7ABFD03D853
:101BC0004FF0FF30014607E00022254B204631460A
:101BD000FEF772FCFEF786FD102409E0002C0ADBFC
:101BE0000A220023FEF7A3FB039B30321A55641E22
:101BF00050EA0102F2D1641C039AC4F111031444A7
:101C0000119A012A03D0012208430DD10AE00843AA
:101C100004D000204FF0110B119072E7A3EB0B05DD
:101C20006D1E0DE05B4504DD4FF0000205F101057E
:101C300004E003DA4FF00002A5F10105002AECD020
:101C400002981199C0E90231C0E9004579E7000026
:101C5000000014400000F03F300000000000F0439E
:101C60000000E03F2DE9FF4F95B09B4689460646B0
:101C700000250FE2252877D100242746F84A0121C4
:101C8000059400E0044316F8013F203B01FA03F0FD
:101C90001042F7D130782A2811D06FF02F03307816
:101CA000A0F13002092A16D8059A44F0020402EB8A
:101CB000820203EB42021044761C0590EFE759F8CC
:101CC000042B0592002A03DA504244F40054059094
:101CD00044F00204761C30782E2816D116F8010F35
:101CE00044F004042A280DD06FF02F023078A0F1C0
:101CF0003003092B09D807EB870302EB4303C7180E
:101D0000761CF3E759F8047B761C30786C280FD0EA
:101D100006DC4C2817D068280DD06A2814D104E0BE
:101D2000742810D07A280FD10DE044F400140AE092
:101D300044F4801401E044F440147278824202D1E9
:101D400004F58014761C761C307866280BD013DCE2
:101D5000582877D009DC002875D04528F6D04628C9
:101D6000F4D047281AD19DE118E0632835D06428C3
:101D700079D0652812D195E1702873D008DC6728E6
:101D8000F1D069286FD06E280DD06F2806D1B5E04C
:101D900073282CD0752875D0782874D05A46179996
:101DA00090476D1C75E1C4F30250022809D0032846
:101DB0000DD0D9F8001004280DD00D6009F10409E8
:101DC00067E1D9F80010EA17C1E90052F6E7D9F83F
:101DD00000100D80F2E70D70F0E719F8041B8DF884
:101DE000001000208DF80100EA46012003E059F8B8
:101DF00004AB4FF0FF3061074FF0000102D40DE05B
:101E000008F101018846B9420FDA8045F8DB1AF87B
:101E100008100029F4D108E008F101018846814248
:101E2000FADB1AF808100029F6D105985B46A0EBFA
:101E3000080721463846179A00F094FA284400EB28
:101E4000080507E04DE029E10DE01AF8010B5A46BC
:101E500017999047B8F10108F7D25B4621463846FA
:101E6000179A13E142E00A220092C4F302524FF0A3
:101E7000000A022A08D059F804CB032A4FEAEC7171
:101E80000AD00DE029E02AE009F1070121F007025C
:101E9000F2E802C1914609E00FFA8CFC4FEAEC71BE
:101EA000042A03D14FFA8CFC4FEAEC71002907DABF
:101EB0000A460021DCF1000C61EB02012D2202E058
:101EC000220504D52B228DF80420012203E0E2072D
:101ED00001D02022F7E7904659E00A2102E01022C3
:101EE0000DE010214FF0000A00910BE010224FF09E
:101EF000000A44F004040827009203E008224FF08F
:101F0000000A0092C4F30252022A05D059F804CB09
:101F10000021032A08D009E009F1070121F0070296
:101F2000F2E802C1914605E01FFA8CFC042A01D1B7
:101F30000CF0FF0C4FF00008220728D5702806D0BF
:101F4000009B83F0100353EA0A0305D00EE0402201
:101F50008DF80420012208E05CEA010206D030225C
:101F60008DF804208DF8050002229046009B83F036
:101F7000080353EA0A030AD15CEA010201D16207AD
:101F800005D530228DF804204FF001087F1E582817
:101F900004D034A003900EA802900DE036A0F9E71B
:101FA00053466046009AFEF7C2F984460398825C65
:101FB0000298401E029002705CEA0100F0D1029883
:101FC00006A9081A00F1200A600702D524F480341B
:101FD00000E00127574502DDA7EB0A0000E00020E2
:101FE00000EB0A01009005984144401A0590E00377
:101FF00006D45B462146179A059800F0B3F90544CC
:10200000002706E001A85A46C05D179990476D1C4D
:102010007F1C4745F6DBE0030CD55B462146179A4B
:10202000059800F09FF9054404E030205A461799BE
:1020300090476D1C0099481E00900029F5DC08E0CF
:10204000029802995A460078491C029117999047C4
:102050006D1CBAF10001AAF1010AF1DC65E1000092
:10206000092801003031323334353637383961626E
:102070006364656600000000303132333435363732
:1020800038394142434445460000000000F058F909
:102090000544761C307800287FF4ECAD19B0284652
:1020A000BDE8F08F620700D4062709F1070222F08D
:1020B000070CFCE80223E14603F000485FEA080C45
:1020C00002D00FF2702C0DE05FEA045C02D50FF233
:1020D000682C07E05FEAC47C02D00FF2602C01E0BC
:1020E000AFF2700C4FF0FF3823F00043CDF850C032
:1020F00065280CD006DC452809D046281DD0472885
:102100003DD13DE0662818D067287ED138E0002117
:10211000112F01DB112000E0781CCDE9000106A998
:102120000EA8FFF7DDFCDDE90F010E9A03910021F7
:10213000009207F1010A04914DE04FF00040009732
:10214000CDE9011006A90EA8FFF7CAFCDDE90F02D0
:1021500003920E9B11990022DDF80CA000930492CB
:1021600011B9791C00EB010AB7EB0A0004D4C0F1E5
:10217000FF3007F1010A0490AAEB0700019044E048
:10218000012F00DA01270021112F01DD112000E0CD
:102190003846CDE9000106A90EA8FFF7A1FCDDE94C
:1021A0000F010E9A0391002104910092BA46210773
:1021B0000CD40399514500DA8A46BAF1010F05DDC6
:1021C000009AAAF10101515C302908D0B84202DA24
:1021D00010F1040F06DA0121CDE9011015E0AAF192
:1021E0000101E9E7002805DC049901440491AAEB08
:1021F000000102E0411C514500DD8A460499401A65
:10220000401C01904FF000400290200704D4019838
:10221000504501DBCDF8048000208DF84F00029876
:102220000DF14F07B0F1004F25D02B200E900298F2
:102230004FF0020800280CDA404202902D200E9048
:1022400007E00A210298FEF75CF83031029007F8A7
:10225000011DB8F10001A8F10108F2DC0298002884
:10226000EFD1791E0E980870307800F0200040F011
:10227000450007F8020D12A8C01B00F107081498CA
:10228000007800B1012000EB0A01019801EBE07138
:1022900005984144401A401E0590E00306D45B4671
:1022A0002146179A059800F05DF8054414980078C7
:1022B00018B15A46179990476D1CE00324D55B4628
:1022C0002146179A059800F04DF805441CE0049843
:1022D000002807DBDDE90301884203DD0098405C4C
:1022E000179901E0179930205A469047049805F154
:1022F0000105401C04900198401E019004D12E203D
:102300005A46179990476D1CBAF10001AAF1010ACB
:10231000DDDC05E017F8010B5A46179990476D1C54
:10232000B8F10001A8F10108F4DC5B462146179AD8
:102330000598ABE62D0000002B00000020000000F7
:102340002DE9F041044600251E461746880404D4B2
:1023500005E039462020B0476D1C641EF9D528469B
:10236000BDE8F0812DE9F041044600251E46904667
:10237000C80301D5302700E02027880404D505E0F4
:1023800041463846B0476D1C641EF9D52846BDE865
:10239000F081000010B5044601E0FEF733FE14F8AA
:1023A000010B04490028F8D1BDE810400A20FEF7CF
:1023B00029BE00000000002000000000010203040C
:1023C000E02300080000002010000000C01A0008F0
:1023D000F02300081000002010080000D01A0008A8
:1023E00000000000007A030A010101010000000062
:040000050800018965
:00000001FF
