:020000040800F2
:10000000180D00209D0100080D0B00084108000894
:10001000090B0008350800080D1100080000000059
:10002000000000000000000000000000810B00083C
:100030003908000800000000110B0008A10C00089E
:10004000B7010008B7010008B7010008B7010008B0
:10005000B7010008B7010008B7010008B7010008A0
:10006000B7010008B7010008B7010008B701000890
:10007000B7010008B7010008B7010008B701000880
:10008000B7010008B7010008B7010008B701000870
:10009000B7010008B7010008B70100083D080008D3
:1000A000B7010008B7010008B7010008B701000850
:1000B000B7010008B7010008B7010008B701000840
:1000C000B7010008B7010008B7010008B701000830
:1000D000B7010008F90E0008B7010008B7010008D1
:1000E000B7010008B7010008B7010008B701000810
:1000F000B7010008B7010008B7010008B701000800
:10010000B7010008B7010008B7010008B7010008EF
:10011000B7010008B7010008B7010008B7010008DF
:10012000B7010008B7010008B7010008B7010008CF
:10013000B7010008B7010008B7010008B7010008BF
:10014000B7010008B7010008B7010008B7010008AF
:10015000B7010008B7010008B7010008B70100089F
:10016000B7010008B7010008B7010008B70100088F
:10017000B7010008B7010008B7010008000000003F
:10018000B7010008B7010008DFF80CD000F008FB49
:1001900000480047E14C0008180D00200648804741
:1001A00006480047FEE7FEE7FEE7FEE7FEE7FEE75C
:1001B000FEE7FEE7FEE7FEE7A50C00088901000860
:1001C00040EA01039B0703D009E008C9121F08C0D9
:1001D000042AFAD203E011F8013B00F8013B521E59
:1001E000F9D27047D2B201E000F8012B491EFBD2D0
:1001F00070470022F6E710B513460A460446194632
:10020000FFF7F0FF204610BD034611F8012B00F860
:10021000012B002AF9D1184670472DE9FE4F81EADB
:10022000030404F0004421F0004100944FF0000B5F
:1002300023F0004350EA01045ED052EA03045BD08D
:10024000C3F30A54C1F30A552C44A4F2F3340194C5
:10025000A0FB0254C1F3130141F48011C3F3130353
:1002600043F4801301FB024400FB034E840A970A07
:1002700044EA815447EA8357A4FB076802958D0A34
:1002800005FB07854FEA932C04FB0C542705029DC0
:100290004FEA065847EA1637B5EB08056EEB070C30
:1002A000870E920E47EA811742EA8312A7FB0201EA
:1002B000B6EB0B0164EB00042B0D43EA0C335E1824
:1002C00044EB1C50DA465146E7FB0201C5F3130428
:1002D0004FEA0B3343EA14534FEA0432019C43EADA
:1002E0000603A4F10C040294009CCDE900B400F0D4
:1002F000C2F803B0BDE8F08F00200146F9E700F036
:10030000004230F000400AD0C10D01F56071C0F329
:10031000160042EA0151C20840071143704700200D
:100320000146704701F0004330B421F0004150EA2B
:10033000010206D00A0DA2F56072C1F31301002A72
:1003400002DC30BC00207047440F44EAC104C10005
:10035000E01830BC00EBC25000F047B830B50B4697
:10036000014600202022012409E021FA02F59D42E5
:1003700005D303FA02F5491B04FA02F52844151EB9
:10038000A2F10102F1DC30BD2DE9F05F054600204D
:1003900092469B4688460646814640241BE02846F6
:1003A00041464746224600F022FA53465A46C01AB2
:1003B000914110D311461846224600F009FA2D1A31
:1003C00067EB01084F4622460120002100F000FAA9
:1003D00017EB00094E41201EA4F10104DFDC484662
:1003E00031462A464346BDE8F09F0029A8BF704722
:1003F000401C490008BF20F00100704710B4B0FA5B
:1004000080FC00FA0CF050EA010404BF10BC7047F5
:1004100049B1CCF1200421FA04F411FA0CF118BF0F
:10042000012121430843A3EB0C01CB1D4FEA0061DE
:100430004FEA102042BF002010BC704700EBC350B1
:1004400010440029A4BF10BC7047401C490008BFDD
:1004500020F0010010BC704710B5141E73F10004A9
:1004600008DA401C41F1000192185B411A4301D1A6
:1004700020F0010010BD2DE9F04D92469B4611B1D0
:10048000B1FA81F202E0B0FA80F22032904600F038
:100490009FF904460F4640EA0A0041EA0B01534621
:1004A0005A46084313D0114653EA010019D0C8F147
:1004B0004002504600F09BF905460E46504659460C
:1004C000424600F085F9084305D0012004E02046AB
:1004D0003946BDE8F08D0020054346EAE0762C431E
:1004E00037430A986305E40AA0EB08000022FD0ADE
:1004F00044EA47540A3002D500200146E9E70105E5
:1005000010196941DDE9084500196941BDE8F04D60
:10051000A2E72DE9FE4F804681EA0300C00F0C469A
:10052000009021F0004123F00045B8EB0200A94102
:1005300005D24046214690461C460B46024623F013
:100540000040104347D0270DC7F30A00C3F30A51F8
:100550000290401A019040286BDAC3F3130040F474
:10056000801B0098924620B10023D2EB030A63EB74
:100570000B0B01985946C0F14002504600F028F993
:1005800006460D4650465946019A00F040F910EBD8
:1005900008006141002487EA115284EAE7731A4394
:1005A00040D0009A62B3019A012A4FEA075215DC43
:1005B000001B61EB02014FF0004202EA0752CDE955
:1005C0000042001C41F5801132462B46FFF753FFD5
:1005D00003B0BDE8F08F40462146F9E7001B61EB10
:1005E0000201001C41F5801300185B412018A2F5A0
:1005F000001747EB030140EAD570B6196D4111E0D1
:100600006D084FEA360645EAC0754FEA0752001BEF
:1006100061EB0201001C41F5801149084FEA3000EE
:100620000019514132462B4603B0BDE8F04FFFF7A9
:1006300013BF0098012240000023D0EB020263EBBD
:10064000E073009821464FEAE074B8EB000061EBDC
:100650000401E9E783F000435BE781F0004158E7DC
:100660002DE9F04D81EA030404F0004B21F0004530
:1006700014464FF0000A23F0004150EA050220D052
:1006800054EA01021DD0C5F30A570246C5F313030D
:10069000C1F31300C1F30A5640F4801543F48013EC
:1006A000A7EB0608101BD64608F2FD3873EB0500D1
:1006B00002D308F1010801E092185B41B8F1000F84
:1006C00003DA00200146BDE8F08D00204FF48011D0
:1006D000064684460EE0171B73EB050705D3121B75
:1006E00063EB050306434CEA010C49084FEA30006E
:1006F00092185B4150EA0107EDD152EA030012D093
:1007000082EA040083EA0501084305D0101BAB41CF
:1007100006D20122002306E000224FF0004302E04F
:100720006FF0010253101AEB06004CEB085110EB6E
:100730000A0041EB0B01BDE8F04DFFF78DBEC1F3A0
:100740000A52C1F3130140F2FF3341F480119A427F
:1007500002DA00200146704740F233439A42A2F287
:10076000334202DC524200F042B800F031B80000DF
:1007700030B5041E71F1000404DB4FF00044404228
:1007800064EB0101141E73F1000405DB1C464FF0FD
:100790000043524263EB0403994208BF904230BDCC
:1007A0001CB509480090094801900546009C06E0E8
:1007B000E06840F0010394E8070098471034AC4229
:1007C000F6D3FFF7E5FC0000B4680008D468000821
:1007D000202A04DB203A00FA02F100207047914001
:1007E000C2F1200320FA03F3194390407047202AF6
:1007F00004DB203A21FA02F00021704721FA02F3CB
:10080000D040C2F120029140084319467047202A87
:1008100006DBCB17203A41FA02F043EAE07306E028
:1008200041FA02F3D040C2F1200291400843194638
:1008300070470000FEE70000FEE700007047000080
:10084000FEE70000B0B540F20044C4F202042046C6
:100850004021002204F0EAF920468021012204F020
:10086000E5F9204600210122802304F0EBF9052060
:1008700003F062FF20464021012204F0D7F9052051
:1008800003F05AFF2046802104F0D6F9012810D148
:100890000A2500BF0520013D03F04EFF20468021C0
:1008A00004F0CAF901284FEA056001D10028F1D10E
:1008B00068B1204640210022002504F0B7F9204607
:1008C00001210122802304F0BDF92846B0BD204655
:1008D000012101228023012504F0B4F920464021A2
:1008E000002204F0A3F920468021002204F09EF9A2
:1008F00020464021012204F099F9052003F01CFF55
:1009000020468021012204F091F9052003F014FF14
:100910002846B0BDB0B540F20044C4F2020405461A
:10092000204601210122802304F08CF92046402139
:10093000002204F07BF920468021002204F076F9A1
:10094000052003F0F9FE002D18BF01252046802167
:100950002A4604F06BF920464021012204F066F992
:10096000052003F0E9FE20464021002204F05EF954
:10097000204680210122BDE8B04004F057B90000B4
:1009800010B540F20044C4F20204204601210122C5
:10099000802304F057F920468021012204F046F913
:1009A000052003F0C9FE20464021012204F03EF953
:1009B000052003F0C1FE20468021002204F036F914
:1009C000052003F0B9FE20464021002204F02EF954
:1009D0000520BDE8104003F0AFBE000080B540F632
:1009E000024004F02BFB40F60000C4F2020000219C
:1009F00001220F23BDE8804004F024B910B504465D
:100A000000F0F0F8012C03D034B9BBEE0E1A01E06F
:100A1000B3EE0E1A30EE010A00F0EEF800F0E2F844
:100A200010EE100AFFF76BFC024603A00B46BDE870
:100A3000104005F02DB900BF7570646174652061C8
:100A40006E676C653A252E31660A0000704700001B
:100A500070B540F60004C4F202042046012104F0FF
:100A6000EBF840F2F426C2F200063178884209D051
:100A700005460020012D02D1FFF7E8FF01E0FFF756
:100A8000BDFF35702046022104F0D6F840F2F5266D
:100A9000C2F200063178884209D005460120012DB6
:100AA00002D1FFF7D3FF01E0FFF7A8FF3570204622
:100AB000042104F0C1F840F2F626C2F200063178B3
:100AC000884209D005460220012D02D1FFF7BEFF62
:100AD00001E0FFF793FF35702046082104F0ACF8E1
:100AE00040F2F725C2F200052978884208BF70BDA0
:100AF00004460320012C03D1FFF7A8FF2C7070BD22
:100B0000FFF77CFF2C7070BDFEE70000FEE70000E1
:100B1000FEE70000F0B581B040F20045C4F20205E6
:100B200004462846002101228023002604F08AF88A
:100B3000002700BF28464021002204F077F8042057
:100B400003F0FAFD28464021012204F06FF8284600
:100B5000802104F071F8002818BF012040EA460601
:100B6000042003F0E9FD072F07F10107E2D3B4FAEF
:100B700084F04009FFF7CEFEF0B201B0F0BD0000F6
:100B8000FEE7000070B540F20045C4F202050446DD
:100B9000284601210122802304F054F828464021F0
:100BA000002204F043F80826E0B2C209284680215A
:100BB00004F03CF8012003F0BFFD2846402101224B
:100BC00004F034F8052003F0B7FD28464021002248
:100BD00004F02CF8052003F0AFFD013E4FEA440479
:100BE000E2D170BD40F22430C2F2000090ED000A64
:100BF0007047000070470000B5EE400AF1EE10FAB1
:100C000002DA9FED210A08E09FED201AB4EE410AB6
:100C1000F1EE10FAC8BFB0EE410A80B59FED1B1A85
:100C20009FED1B2A80EE011A9FED1B3A40F2243003
:100C3000C2F2000080ED000A21EE021A9FED152A93
:100C400031EE021A81EE031A11EE100AFFF757FB7C
:100C50009FED0B0B53EC102BFFF7DFFAFFF762FB56
:100C60009FED0E0A01EE100A44F2000021EE000A88
:100C7000C4F201000021BDE8804000F0BFB800BF11
:100C8000666666666666EE3F00000000000034435C
:100C90000000FA440000FA4300409C460000C842AD
:100CA00003F054BD81B04EF68851CEF200010A68BF
:100CB00043F6080042F47002C4F202000A6050F8E1
:100CC000081C41F0010140F8081C00BF50F8081C46
:100CD0008907FBD5016841F0800101600021009186
:100CE000009A4F2A06D800BF009A01320092009A5B
:100CF000502AF9D3026842F09002026000910099F4
:100D00004F2905D800990131009100995029F9D354
:100D100001684FF6FF7221F00301016050F8081CD2
:100D2000CFF6F662114040F8081C50F8081C21F478
:100D3000802140F8081C00210160026843F2100283
:100D4000C2F2004240F8042C416050F8081C41F403
:100D5000803140F8081C4FF6FF7100BF50F8082C96
:100D6000920303D40029A1F10101F7D150F8081C26
:100D70008903FBD5826B47F2000142F08052C4F236
:100D8000000182630A6842F440420A60026802601D
:100D9000026842F400420260026842F4A05202601B
:100DA00045F20842C0F2407240F8042C50F8082C7A
:100DB00042F0807240F8082C50F8082C9201FBD5C4
:100DC0000A6842F480320A604A68D203FCD50A6895
:100DD00042F400320A6000BF4A689203FCD5016801
:100DE00021F003010160016841F00201016000BFD0
:100DF00001680907FCD501B0704700009FED0F1A8C
:100E0000B4EE410AF1EE10FAB0EE412A08DCB5EE7C
:100E1000400AB0EE402AF1EE10FAB8BF9FED082A62
:100E200090ED0B0AB8EE400A22EE000A80EE010AAD
:100E3000BCEEC00A10EE102A04F06CBB0000C842E1
:100E40000000000070B584B04FF0807004F026F907
:100E500040F2F020C2F20000006841F25971CDF278
:100E6000B711A0FB010641F2101004F0E7F844F2BC
:100E70000004C4F20104204604F05AFB6D462846E3
:100E800004F056FC6320ADF800004FF0FF3000EB9B
:100E9000163002902046294604F0F4FB204604F068
:100EA000EBFB40F6044004F0C9F804F55045284631
:100EB00002210022202303F0C5FE28460021032240
:100EC000202303F0E9FE28460321202203F076FECA
:100ED0006D46284604F026FB0120ADF800002046B0
:100EE00000212A4604F0FCF920460021602204F08B
:100EF000F5FA04B070BD0000B0B546F20044C4F28B
:100F00000204A4F5AA3540F20431C0F204012846D7
:100F100004F018FD012818BFB0BD284604F078FC85
:100F20002046022103F0DAFCC0F5806140F22C700B
:100F3000C2F20000016040F22C30C2F20000002238
:100F4000425400F0D7F82046022103F013FC20465B
:100F50000221202203F056FC20460221BDE8B040C9
:100F600003F012BC2DE9F04389B040F6164004F0BE
:100F700065F841F20009C4F2010909F5AA352846CD
:100F8000072103F017FCE846404603F09BFC402095
:100F90000690002709F1040401262846072142464D
:100FA000039700940196CDE90476089703F046FC78
:100FB00028460721042203F0F1FB40F6164004F016
:100FC0003DF82846022103F0F5FBE846404603F0D1
:100FD00079FC40F22C30C2F20000CDE902074FF458
:100FE0008060CDE907072846022142460697CDE9F1
:100FF0000046CDE9047603F021FC284602210422B4
:1010000003F0CCFB2846022103F0BEFB4FF4406006
:1010100004F014F809F570452846022100224FF427
:10102000007303F00FFE2846002102224FF40073E4
:1010300003F032FE284607214FF4007203F0BEFD94
:101040004FF4406003F0FAFF2846022100224FF4DB
:10105000806303F0F7FD2846002102224FF48063ED
:1010600003F01AFE284607214FF4806203F0A6FD24
:1010700041F2041003F0E2FF484604F0D1FB484679
:101080004FF4E13104F05CFB4846002104F088FC99
:101090004846002104F068FC4846002104F072FC38
:1010A0004846002104F0ACFB4846082104F072FCDD
:1010B0004846042104F060FC4846802104F01EFCF0
:1010C0004846402104F010FC25200221022203F0B2
:1010D000AFFE484640F2053104F028FC48464FF484
:1010E000417104F023FC484604F012FC09B0BDE84D
:1010F000F0830000024601A004F0CABD7265637669
:101100005B25645D2D3E2025730A0000FEE700008C
:10111000F0B581B0044600210DF103050F462046CD
:101120000B21012200F04EFF064620460B21002233
:1011300000F048FF0643204613212A4600F06CFBCE
:101140009DF803103043490705D0012F03D800282C
:1011500007F10101E2D0012F88BF6FF00B0001B051
:10116000F0BD00002DE9F04F93B08921FE2201234C
:10117000044600F001FF20B920468821002200F03B
:1011800021FF40F2E830C0F29010C4F8520146F658
:101190008530C0F20100C4F8580147F2A400C0F243
:1011A00009000025C4F8D40003A9204684F8F050B3
:1011B000256200F013F901460190E8B9ADF80C5032
:1011C00005AFDDE9036C8ECFDDE90950C4E9046C9D
:1011D00004F1180C8CE88E000FABDDE90BE8DDE9BB
:1011E0000D9AC4E90A500FCB04F1400CC4E90CE895
:1011F000C4E90E9A8CE80F006420C0F28430C4F871
:1012000034014FF4FA70A4F838014FF42060A4F8C8
:101210003C014FF0010820468021012284F85081D2
:1012200000F0D0FE81462046FF21012200F0CAFED8
:10123000824620460021002200F0C4FE83460DF1C4
:101240000B022046912100F0E7FA9DF80B100646AC
:1012500084F83A1120460021012200F0B3FE07462F
:101260002046FF21002200F0ADFE054620468021E9
:10127000002200F0A7FE49EA0A0141EA0B013143CE
:1012800039432943084301990843C1B219B1B1FA5E
:1012900081F149093CE00025A8B2052802D9FC20CB
:1012A00026E000BFDFE800F003130B0F071D84F8F2
:1012B000288000201CE020466021FE2214E084F8F3
:1012C0002A80002014E084F82B80002010E004EB3A
:1012D0008500406B4421C0F34F22204600F07CFE85
:1012E00006E020466021EF22002300F045FE00BF0B
:1012F000020604BF611981F82880C1B2B1FA81F1F8
:10130000042D4FEA511103D8002A05F10105C3D07D
:1013100000291CBF002084F82A00010604BF002019
:1013200084F82B00010606D0010611D001061CD05E
:10133000010629D11FE020466021FE22022300F091
:101340001BFE002804BF002184F82C100106EDD1FB
:1013500020466021EF22102300F00EFE002804BF7B
:10136000002184F82D100106E2D14FF49010606343
:101370000020010608D194F8290028B32046442112
:10138000202200F029FE00B3010603D14FF40C1017
:10139000E0630020010604BF0020206401060AD19A
:1013A000FF2084F8300120460121FF22012500F0B2
:1013B00009FE84F83251010604BF002184F815119A
:1013C00040B213B0BDE8F08F00204FF48041A1631C
:1013D0000106DFD1DAE7000001F090B82DE9F0470F
:1013E00084B08246007C884608700DF10A0250469F
:1013F000F82100F025FA08B168BB05E001AA5046C3
:10140000042100F013FA30BBBDF80A1021B1019A93
:10141000B2FBF1F1C8F80810D8F80810CAF8181093
:10142000C8B9002088F80C0003AA5046202100F01B
:1014300007FA80B9BDF80C1031B1C900C8F8101016
:10144000CAF82010012104E0DAF82010C8F81010C2
:1014500000218AF81C1008B130B919E008F1140114
:10146000504601F089FE98B1010606D10DF10F0238
:101470005046012100F0D0F940B3010604D108F133
:101480000401504601F0C0FD40B204B0BDE8F08751
:1014900008F1240608F118050AF12809002408E0DB
:1014A00019F80410002029550134062C06F1040611
:1014B000DAD0A7B250463946324600F01FF800286D
:1014C000D2D1052FECD9FC200021ECE79DF80F10BC
:1014D0008AF83011C90988F83C108AF84C100106C6
:1014E000D2D1CCE7052902D9FC20002103E0084431
:1014F00090F82810002040B21170704770B582B08B
:1015000015460C46052906462ED8DFE804F01122C0
:101510000D0F03030DF106023046642100F090F92F
:10152000BDF80610490205E0F16B02E0316C00E005
:10153000716B0020002203061FD142B106F1280280
:10154000A9B106EB840329605963012114E02960E5
:1015500013E00DF106023046442100F071F9BDF8A8
:10156000061001224902E6E70022FC20E3E706EB31
:101570008401496B29600021115540B202B070BD51
:1015800010B582B090F8DA200C46042A13D10DF180
:101590000702132100F040F99DF8071001F007023F
:1015A00011F0180FA2F10401B1FA81F118BF6FF028
:1015B0000500490909E00DF10602142100F02CF99B
:1015C00020B99DF8061001F00101217040B202B06F
:1015D00010BD000001F0F2BD70B586B00D460DF1F2
:1015E0000B0214210C23044600F034F9002861D1C9
:1015F0000020A875C5E900009DF814009DF8122090
:101600009DF813309DF811C04002520240EA434059
:10161000BDF80D30BDF8151042EA4C42C5E9032073
:1016200018BA09BA030CB4F852014FEA114E9DF8EA
:101630000B1094F831C1B0F57A7FAB821BD000FB60
:101640000EF000F5FA7E44F6D350C1F26200AEFB14
:10165000000E207F4FEA9E1E68B1208C5843000A7E
:10166000824212D142F2B82EBCF1000F04BF48F6FC
:10167000E02ECFF6FF7EBCF1000F0FD01FFA8EF0E8
:10168000800828814FEA8E100BE0161A1FFA8EF0A0
:101690005043B0FBF6FEBCF1000FEFD10020A5F8DF
:1016A00008E0E8750DF117062046CDE9005601F077
:1016B000D5FE10B130B106B070BD9DF81710297677
:1016C0000028F8D12E1DB5F817C04CCE2969AD8A77
:1016D00004F1540E8EE84C002166A4F86450A4F87E
:1016E00067C006B070BD000010B582B00C46002186
:1016F0008DF807100DF10702012100F08DF828B1D7
:1017000060B198B1D0B108B302B010BD9DF8070028
:10171000C0F30010207000200028F2D19DF80700CF
:10172000C0F3C000A07000200028EBD19DF8070096
:10173000C0F38000607000200028E4D19DF807000D
:10174000C0F38010E07000200028DDD19DF8070074
:10175000C0092071002002B010BD000001F08ABF56
:10176000027F00200A707047012302F0C7B8000012
:1017700002F0E6B8F0B581B004460020207420469F
:101780000D4600F0FFF910B130B190BB0CE02046DF
:1017900002F014F80028F8D1032084F83201204622
:1017A0002946FFF719FF20BB00210DF1030500BFFB
:1017B0000F4620460B21012200F004FC064620467D
:1017C0000B21002200F0FEFB0643204613212A468F
:1017D00000F022F89DF803103043490705D0012F8F
:1017E00003D8002807F10101E2D0012F88BF6FF074
:1017F0000B0040B201B0F0BD81B000200090009815
:10180000F92805D80098013000900098FA28F9D3FB
:10181000002001B07047000080B590F85C0102F034
:10182000E5FA002818BF6FF0130080BD80B590F86E
:101830005C0102F0DFFA002818BF6FF0130080BDD2
:1018400080B590F85C0102F0E7FA002818BF6FF04D
:10185000130080BD10B590F85C0100243F2B9BB2B3
:1018600088BF6FF0030402F0D1FA002818BF6FF0B0
:101870001304204610BD00004A088A2100F0A2BBD4
:1018800015294FF0F80C09D801230B228B40C0F228
:10189000300213421CBF01744FF0000C4FFA8CF061
:1018A00070470000F0B581B019B1F62040B201B028
:1018B000F0BD0446152A0DD0069D142A65D10122DB
:1018C000002D08BF10222046842101B0BDE8F04061
:1018D00000F078BB2046FF21012200F073FB054693
:1018E00020460021002200F06DFB05432046FF2129
:1018F000002200F067FB054320468021012200F012
:1019000061FB054320468521022200F05BFB054375
:101910002046FF21042200F055FB05432046CD213F
:10192000002200F04FFB05432046CC21112200F09D
:1019300049FB05432046FF21072200F043FB0543F6
:101940002046BE21002200F03DFB05432046FF213A
:10195000062200F037FB05432046CC21092200F087
:1019600031FB05432046FF21002200F02BFB0543FD
:101970002046FF21012200F025FB054320460021DF
:10198000002200F01FFB284390E7042B0ED8012112
:101990001846DFE803F0040303030300002049B9FD
:1019A000010610D001067FF481AF1BE0F520002175
:1019B0000029F5D020460A211A461E4600F002FBF7
:1019C00033460106EED1002D18BF01252D0120461A
:1019D0008421EF221E462B4600F0CEFA3346010644
:1019E0007FF464AF00210DF1030584F8DA3000BF05
:1019F0000F4620460B21012200F0E4FA064620465D
:101A00000B21002200F0DEFA0643204613212A466D
:101A1000FFF702FF9DF803103043490705D0012F5F
:101A200003D8002807F10101E2D0012F88BF6FF031
:101A30000B003BE770B5052901D9FC233AE03AB128
:101A400000EB81035B6B01244FEA532C002303E07E
:101A500001234FF0000C0024DFE801F003160E1202
:101A6000072080F82840002324E05B0004460D4650
:101A700060211646FE2217E080F82A40002319E074
:101A800080F82B40002315E01FFA8CF30D4644210B
:101A900016461A46044600F09FFA07E01B0104466A
:101AA0000D4660211646EF2200F066FA29463246BE
:101AB000034620461E0601D058B270BD0844002AD5
:101AC00018BF012280F8282058B270BD431893F83F
:101AD00028306BB170B5052923D8DFE801F0111467
:101AE0000B0E0303C2F34F2304460D4664210FE09F
:101AF00000231DE0C263002314E00264002311E010
:101B0000426300230EE0C2F34F2304460D464421F6
:101B100016461A4600F060FA324629460346204629
:101B200000E0FC231E06BDE8704001D058B27047AB
:101B300000EB8100426358B27047000002F0E0B948
:101B400002F0A2BA02F0C8BA02F0DCBA02F030BB6E
:101B5000B0B50446007F0D4600284FF000000ED0BF
:101B6000B4F85211B1F57A7F08BFE80882B2204676
:101B7000202100F031FA002808BF2562B0BD25629F
:101B8000B0BD0000F0B583B0057C80210122044681
:101B900000F018FA2046FF21012200F013FA204637
:101BA0000021002200F00EFA94F83A2120469121FB
:101BB00000F008FA20460021012200F003FA204636
:101BC000FF21002200F0FEF920468021002200F0D3
:101BD000F9F9032D40D0012D2CD0002D4FD12046F6
:101BE00000210122012500F0EDF900288DF80750B1
:101BF00040F09880002740F2CE760DF1070500BF37
:101C000027B1204600212A46FFF706FEB74207F11A
:101C1000010107D89DF8072012F0010202D0020648
:101C20000F46EDD0013940F2CE72914288BF6FF07D
:101C3000060077E0002842D194F8DA000138022843
:101C40003DD802AA20460E21FFF7FAFDBDF8085044
:101C5000B8B10021002023E0002859D194F8DA001F
:101C60000138022854D80DF10A0220460E21FFF750
:101C7000E7FDBDF80A5060B30021002039E0F820EC
:101C800050E002AA20460C21FFF7DAFDBDF808104B
:101C9000B0FA80F011F478614FEA501018BF0121BA
:101CA00015F4786218BF01221143012907D130B120
:101CB00040F2F701C2F20001204601F01FFD20466C
:101CC0000021022200F07EF960BB042184F8321169
:101CD00028E00DF10A0220460C21FFF7B1FDBDF806
:101CE0000A10B0FA80F011F478614FEA501018BF72
:101CF000012115F4786218BF01221143012907D18F
:101D000030B140F2F701C2F20001204601F0F6FCCA
:101D1000204600210422042500F054F9002808BFC1
:101D200084F8325140B203B0F0BD00002DE9F04715
:101D300096B0044606A84021FEF75BFA0020ADF8F5
:101D400016008DF815008DF814000490204601212E
:101D500000F046FC94F81421012A07D894F81311D6
:101D600001D1202902D872B90D290CD304A905AAE2
:101D7000204601F0E5FD58B994F8501141B9D4F866
:101D80004C1150B90EE0204602F0BCF90028F3D007
:101D900040F20401C2F2000120B140B188B128B381
:101DA000A8BB2DE0204601F0A9FC0028F6D10025B3
:101DB00020460021002204230095FFF773FD002830
:101DC000EDD12046FF21012200F0FCF805460DF17F
:101DD000160220468421FFF733FD05432046FF21EC
:101DE000002200F0EFF828430028D9D1BDF81600F2
:101DF00006A90001C4F8D4002046FFF7EFFA30B975
:101E00000DF1150220460921FFF706FD40B388BBFE
:101E10000DF1180E9EE82F50E36112AB0DF1340A5C
:101E200020616161A261C4F824C00FCB04F1300CC1
:101E30009AE8C0078CE8800704F1400C8CE80F009A
:101E40000DF11502204601212562C4F828E0E66262
:101E5000FFF7E2FC70B99DF8151084F8301109E025
:101E60009DF8151001F001018DF8151084F831115D
:101E70000028CDD068B160B300284AD0002853D0E4
:101E800000285DD0002866D000286ED016B0BDE8CE
:101E9000F08700208DF8080002AA20460121FFF7F4
:101EA000BBFC0028E7D19DF8081001F0EF058D423A
:101EB000E1D0204601212A4600F084F80028DAD13A
:101EC000616984F830510546204602F019F8284629
:101ED000D1E700208DF8080002AA20460121FFF773
:101EE0009BFC0028C8D19DF8081001F0FB058D422D
:101EF000C2D0204601212A4600F064F80028BBD158
:101F0000616984F830510546204601F0F9FF284602
:101F1000B2E7032084F832010DF10F0220460021C0
:101F200001F0A8FB0028ABD19DF80F000DF10F02C6
:101F300084F8E8002046012101F09CFB0028A1D193
:101F40009DF80F0002AA84F8E0002046032102F069
:101F50007FFD002898D1029802AAC4F8E400204628
:101F6000042102F075FD002890D10299C4F8DC101C
:101F700016B0BDE8F08700002DE9F04182B090F87E
:101F80005C6115460DF10702304698460F4601F098
:101F90002DFF0446002818BF6FF013040ED19DF8E2
:101FA00007003946284040EA080230468DF80720ED
:101FB00002F0EEFA002818BF6FF0130460B202B00E
:101FC000BDE8F08180B590F85C0102F0E1FA0028EC
:101FD00018BF6FF0130080BD80B590F85C0102F06F
:101FE000E9FA002818BF6FF0130080BD10B590F813
:101FF0005C0100243F2B9BB288BF6FF0030402F00A
:10200000D3FA002818BF6FF01304204610BD00005B
:1020100070B5B0F85441D0F85801DDF814C06043F1
:10202000049E80304FEA10255AB1500800EB812001
:10203000B0FBF2F000EB4000404300F50040010C23
:1020400000E0002106FB03F20023C2F2914305FBEE
:1020500004FE02F500420CEB03040698120C04F592
:1020600000449C4202FB02F203D20023CFF6F0733D
:102070000FE04AF6AB260CF10303CAF6AA26A3FB2F
:102080000636B308DB00A3EB960303F500431B0CF5
:102090005B4302EB50021A44B2FBF0F03F2260F3C4
:1020A0005E3240F20940C8F20210A2FB0002900921
:1020B000484300F5FA7344F6D350C1F26200A3FB23
:1020C00000126FF00F0101EA9201DDF81CC001F56A
:1020D000FA720EF1200189094FF080452C468D429D
:1020E0004FEA9505FAD8A2FB00208CB1002500BF6D
:1020F0002A198A1A28BF114604EB550238BF6A080C
:10210000A4081546F4D1B3F5FA4F05D2002008E033
:102110000022B3F5FA4FF9D381090EEBD010B0FBD2
:10212000F1F04FF0804300BF194683424FEA93031A
:10213000FAD869B1002500BF6B18C31A28BF18462A
:1021400001EB550338BF6B0889081D46F4D100E048
:10215000002300209A4238BF1346CCF8003070BDEF
:102160002DE9F04F8BB08846D1E903419A46099199
:102170000DF12A0191468346FFF7F2FA4FF0000174
:1021800048B99DF82A2032B1DBF82010B8F81420A5
:1021900051438031090A2646002808BF0E440DF13C
:1021A0002B015846FFF7DCFA4FF0000768B99DF89D
:1021B0002B1051B1DBF82010B8F8142051438031B6
:1021C000090A4FF47A7201FB02F7B7F5481F28BFDE
:1021D0004FF448174FF47A7C38B14FF47A7E314689
:1021E00000285CD00BB0BDE8F08F9BF8E02042F6F1
:1021F0000073C0F23A0302FB03F1079401F5FA748D
:1022000044F6D351C1F26201A4FB01459BF8E840BA
:10221000CDF82080634303F5FA73A3FB0134DBF8A8
:10222000DC10C846069101FB0CF1DBF8E490AB0929
:1022300001EBD511B1FBF3F109FB0CF3A50903EB9D
:10224000D413B3FBF5F34FF4C0541944082A08BF64
:102250004FF48054614344F6D35301F5F871C1F251
:102260006203A1FB0312910940F27762514301F529
:10227000FA71A1FB031206F1800193090A0A5A437D
:10228000079C803209F5FA75C146DDF820804FF4CD
:102290007A7E4FEA122C21F0FF010028A2D106FB22
:1022A0000EF202F5004E0022B2EB1E4F0CD148F2A6
:1022B000AE71C0F28F21C9F80010CBF84011CAF8F6
:1022C00000200BB0BDE8F08F099A4FF47A705043AC
:1022D0004FF6FF7290434FEA1E42CDE90739B0FB3B
:1022E000F2F046F26669BCF1010FC0F2660905958D
:1022F00098BF4FF0010C484538BF81460CEB4C00AD
:1023000083004FF0804000BF064698424FEA90009D
:10231000FAD84FF416757EB1002000BF82199A1AC0
:1023200028BF134606EB500238BF4208B6081046D5
:10233000F4D14FEA420C01E04FF0000C98F818007D
:1023400009FB05F944F6D3554FF48033C1F2620519
:1023500040BB4FF4F87060F30F0EAEEB4700A0FBEC
:102360000502AEFB0507B8F8080049F69A16C0F258
:102370000606704347F65136C3F2C676A0FB060642
:102380006FF0FC0000EA8200BA09B0FBF2F0B20A7A
:10239000A3EB0020504300F50040400C00F5004046
:1023A0004043830B4FF44870584309F5004200F551
:1023B0000040120CA846000C5243089D10FB002759
:1023C0004FF080400646B8424FEA9000FAD8B6B1C6
:1023D000002200BF9019381A28BF074606EB5200AA
:1023E00038BF5008B6080246F4D1000448F21F5224
:1023F0003030C5F2EB12A0FB0202500900E00020D1
:10240000B0FBFCF041F2883240F6B53700FB072004
:1024100041F25972CDF2B712A0FB0202DDE905705C
:102420004FF4C8163844A0FB0807B80906EBD717C5
:10243000B7FBF0F7A646520B4FF080400646B84275
:102440004FEA9000FAD8B2F5704F28BF4FF47042AF
:10245000DEB1C846A946002085197D1B06EB500455
:1024600028BF2F4638BF4408B6082046F4D14FF4A1
:10247000FA7000EB042044F6D354C1F26204A0FBCE
:102480000407B8094D46C14600E00020524300FB56
:1024900000244FF0804072460746A0424FEA900069
:1024A000FAD887B1002600BFF019201A28BF0446C9
:1024B00007EB560038BF7008BF080646F4D14FF44A
:1024C0007A77784300E0002048F2AE77C0F28F2799
:1024D000B84238BF07464FF448702F60CBF84071C0
:1024E000CDE900090798CDF80CA002905846FFF7F7
:1024F0008FFD00200BB0BDE8F08F0000F0B581B07B
:102500000C460221054600F06BF818B100270028A0
:1025100040D113E095F8F11061B104F1400295F853
:10252000F27005F1F30106461046FDF76DFE3046E8
:1025300080BB03E0002784F8407058BB44F6564641
:10254000C3F2353647B1222F0BD8202F09D045F2E0
:102550005430C0F231000AE045F25430C0F230008D
:1025600005E0262F29D845F25430C0F23200A06091
:1025700043F24C00C2F258006060266043F24C0007
:10258000C0F25800606204F160022846C021266251
:10259000FFF742F908B101B0F0BD0DF10302284682
:1025A000C221FFF739F99DF80320012184F8611059
:1025B000110984F8621001B0F0BD03A12046152274
:1025C000FDF7FEFDDAE700BF564C35334C3058209E
:1025D000455331206F72206C6174657200000000F9
:1025E0002DE9F04FA7B090F8F0808A46044600210C
:1025F000B8F1070F2391229100F01381204680212A
:102600000122FFF7DFFC05462046FF210122FFF7EC
:10261000D9FC054320460021002200231993FFF72F
:10262000D1FC05432046FF210622FFF7CBFC0543E2
:102630000DF19A0220468321FFF7EEF89DF89A10DB
:10264000054341F0040220468321FFF7BBFC05430C
:102650002046FF210722FFF7B5FC054320468121D4
:102660000122FFF7AFFC05432046FFF7C5F80543FD
:10267000204680210122FFF7A5FC5FEACA7145EAE6
:102680000007CDF8688000F0D78018F001004FF007
:10269000000940F0D380204694216B22FFF792FC82
:1026A0001290204683210022FFF78CFCB8B9002647
:1026B0000DF17505204683212A46FFF7ADF89DF8F8
:1026C00075100143090605D10136B6F5FA6FF1D14F
:1026D0004FF4FA6631097C2988BF6FF00600139029
:1026E0002046832101221C97FFF76CFC119025AA3C
:1026F00020469021FFF79AF8259E109020469421BD
:102700002422FFF75FFC0F90204683210022FFF771
:1027100059FCC0B900270DF1750500BF2046832183
:102720002A46FFF779F89DF875100143090605D18F
:102730000137B7F5FA6FF1D14FF4FA6739097C29FF
:1027400088BF6FF006008146C6F306201B90C6F3D3
:10275000C0301990204683210122FFF733FC8346C5
:1027600025AA20469021FFF761F825990746080E13
:102770001490080C1590080A179116902046942181
:102780002522FFF71FFC8046204683210022FFF709
:1027900019FCE8B956464FF0000A0DF1750500BF67
:1027A000204683212A46FFF737F89DF8751001432C
:1027B000090606D10AF1010ABAF5FA6FF0D14FF411
:1027C000FA6A4FEA1A11B2467C2988BF6FF00600F8
:1027D0000646204683210122FFF7F4FB054625AA81
:1027E00020469021FFF722F8DDE912211143119ACA
:1027F0001143109A11430F9A114341EA090141EA2A
:102800000B01394341EA0801314329430843259923
:102810001C9FDDE91A890743080E1090080C1190DF
:102820000CE000254FF0000B4FF000090027B8F135
:10283000070F40F09883E2E34FF000095FEA8A70E7
:10284000CDF860A0CDF86C9040F1CE8118F0020078
:1028500040F0CA81204694210222FFF7B3FB0F907B
:10286000204683210022FFF7ADFBC0B900260DF101
:10287000750500BF204683212A46FEF7CDFF9DF84F
:1028800075100143090605D10136B6F5FA6FF1D18D
:102890004FF4FA6631097C2988BF6FF00600139067
:1028A000204683210122FFF78DFB0E900DF193024C
:1028B00020469021FEF7B0FF0D90204694217B2208
:1028C000FFF780FB0C90204683210022FFF77AFB64
:1028D000B8B900260DF17505204683212A46FEF77A
:1028E0009BFF9DF875100143090605D10136B6F529
:1028F000FA6FF1D14FF4FA6631097C2988BF6FF085
:1029000006001290204683210122FFF75BFB0B900B
:102910000DF1920220469021FEF77EFF0A9020469C
:1029200094217722FFF74EFB099020468321002255
:10293000FFF748FB8146C8B900260DF1750500BFB9
:10294000204683212A46FEF767FF9DF875108146D1
:102950000843000605D10136B6F5FA6FF0D14FF401
:10296000FA6630097C2888BF6FF00609204683216B
:1029700001221C97FFF726FB089025AA20469021EC
:10298000FEF754FF25990790480E8DF87500C1F3A6
:1029900086408DF87600C1F3C6208DF87700C1F32C
:1029A00006108DF87800782000EAC1008DF89A00B2
:1029B000204694217822FFF705FB069020468321CC
:1029C0000022FFF7FFFA0746C0B900260DF19B056C
:1029D000204683212A46FEF71FFF9DF89B100746DD
:1029E0000843000605D10136B6F5FA6FF0D14FF471
:1029F000FA6630097C2888BF6FF0060720468321DD
:102A00000122FFF7DFFA059025AA20469021FEF764
:102A10000DFF9DF89A10259A049001EB52708DF8E5
:102A20007900C2F386508DF87A00C2F3C6308DF873
:102A30007B00C2F306208DF87C00D0B240088DF8F0
:102A40007D00402000EA82108DF89A0020469421F3
:102A50007922FFF7B7FA0390204683210022FFF77F
:102A6000B1FA0646C0B900250DF19B082046832126
:102A70004246FEF7D1FE9DF89B100646084300062D
:102A800005D10135B5F5FA6FF0D14FF4FA65280993
:102A90007C2888BF6FF00606204683210122FFF7BD
:102AA00091FA804625AA20469021FEF7BFFE9DF8A8
:102AB0009A10259A834601EB92608DF87E00C2F34E
:102AC000C6408DF87F00C2F306308DF88000C2F357
:102AD00046108DF881007C2000EA82008DF89A0073
:102AE000204694217A22FFF76DFA82462046832100
:102AF0000022FFF767FA054600BBCDE901A84FF0B9
:102B0000000A0DF19B0800BF204683214246FEF7D4
:102B100083FE9DF89B1005460843000606D10AF186
:102B2000010ABAF5FA6FEFD14FF4FA6A4FEA1A10B8
:102B30007C2888BF6FF00605DDE901A820468321C7
:102B40000122FFF73FFA029025AA20469021FEF7C6
:102B50006DFE13990F9A11430E9A11430D9A11436A
:102B60000C9A0A43129911430B9A11430A9A114382
:102B7000099A1143089A41EA09011143079A11433E
:102B8000069A1143059A39431143049A1C9F114335
:102B9000039A1143314341EA080141EA0B0141EA3A
:102BA0000A01029A2943114308439DF89A10259A75
:102BB000074301EB92708DF88200C2F3C6508DF886
:102BC0008300C2F306408DF88400C2F346208DF8DE
:102BD0008500C2F38600DDE91A89DDF860A08DF872
:102BE000860000208DF887005FEA4A704FF00005EC
:102BF00040F17B8118F0040040F077812046942159
:102C00007B22FFF7DFF90F90204683210022FFF798
:102C1000D9F9C0B900260DF19B0500BF20468321DC
:102C20002A46FEF7F9FD9DF89B100143090605D1E0
:102C30000136B6F5FA6FF1D14FF4FA6631097C2905
:102C400088BF6FF006001390204683210122FFF712
:102C5000B9F90E9023AA20469021FEF7E7FD0D90CA
:102C6000204694217C22FFF7ADF90C902046832169
:102C70000022FFF7A7F9C0B900260DF19B0500BFA0
:102C8000204683212A46FEF7C7FD9DF89B1001438D
:102C9000090605D10136B6F5FA6FF1D14FF4FA669F
:102CA00031097C2988BF6FF00600129020468321ED
:102CB0000122FFF787F90B9022AA20469021FEF708
:102CC000B5FD0A90204694217322FFF77BF9099005
:102CD000204683210022FFF775F98146C0B90026FE
:102CE0000DF19B05204683212A46FEF795FD9DF8B0
:102CF0009B1081460843000605D10136B6F5FA6FF0
:102D0000F0D14FF4FA6630097C2888BF6FF00609CD
:102D10002046832101221C97FFF754F9089025AA29
:102D200020469021FEF782FD259907904FEA012861
:102D3000204694217422FFF745F90690204683210E
:102D40000022FFF73FF90746C0B900260DF19B05A9
:102D5000204683212A46FEF75FFD9DF89B1007461B
:102D60000843000605D10136B6F5FA6FF0D14FF4ED
:102D7000FA6630097C2888BF6FF006072046832159
:102D800001221FFA88F8FFF71DF9059025AA2046B1
:102D90009021FEF74BFD9DF897A0049020469421CA
:102DA0007522FFF70FF90390204683210022FFF7D9
:102DB00009F90646C0B900250DF19B0B2046832179
:102DC0005A46FEF729FD9DF89B100646084300066B
:102DD00005D10135B5F5FA6FF0D14FF4FA65280940
:102DE0007C2888BF6FF006062046832101224AEA2C
:102DF000080AFFF7E7F8804625AA20469021FEF74B
:102E000015FD25990190080285B22046942176226D
:102E1000FFF7D8F88346204683210022FFF7D2F837
:102E20000295E8B9CDF800B0C34600250DF19B0826
:102E3000204683214246FEF7EFFC9DF89B1001439C
:102E4000090605D10135B5F5FA6FF1D14FF4FA65F0
:102E500029097C2988BF6FF00600D846DDF800B04C
:102E60000090204683210122FFF7ACF8054625AAF1
:102E700020469021FEF7DAFC13990F9A11430E9A1F
:102E800011430D9A11430C9A0A43129911430B9A5C
:102E900011430A9A1143099A1143089A41EA090118
:102EA0001143079A1143069A1143059A3943114376
:102EB000049A1C9F1143039A11433143019A41EA3A
:102EC00008011143009A41EA0B01114329430843C9
:102ED0009DF89710074302984FEA4A2BDDF860A04F
:102EE000DDE91A8941EA000501E04FF0000B2046B8
:102EF00081210022FFF766F807432046FF210622C2
:102F0000FFF760F807430DF19A0220468321FEF790
:102F100083FC9DF89A10074301F0FB0220468321B1
:102F2000FFF750F807432046FF210122FFF74AF838
:102F30000743204600210122FFF744F807432046BB
:102F4000FF210022FFF73EF80743204680210022A0
:102F5000FFF738F81999DDE9163CDDE91426074337
:102F6000B8F1070F4BD0380649D15FEACA7014D0C8
:102F700018F0010011D1109884F8139184F82E01F3
:102F8000119884F8141184F82A2184F82B6184F8AC
:102F90002C3184F82DC184F82F015FEA8A7010D596
:102FA00018F002000DD19DF893009DF8921084F85E
:102FB000F10084F8F21004F1F3000DF17501FDF752
:102FC00023F95FEA4A7014D518F0040011D1DDE945
:102FD000221004F58C7282E803084FF47A106843DB
:102FE0004FF6FF718843C0F1D450002D18BF05146F
:102FF000E56048EA0A008DF89A0084F8F00078B29B
:1030000027B0BDE8F08F0000B0B584B0044640F6AC
:1030100036300D4608600DF105012046FEF764FBD1
:1030200008B104B0B0BD9DF8051031B99DF8061087
:1030300019B99DF80710002945D000208DF80A0025
:103040000DF10B0220460021FEF788FB08B1D0BB32
:1030500006E00DF10A0220464621FEF7DDFB90BB9B
:103060009DF80B2043F62F235A434FF4FA7344F68E
:10307000D35C9DF80A1003EB0222C1F2620CA2FBA2
:103080000C2301319A09514301F5FA71A1FB0C128D
:103090009DF8051000294FEA921104D02A680A44CD
:1030A00002F24E222A609DF8072022B140F26452BB
:1030B00002EB410104E09DF8062022B101F52571E3
:1030C0002A681144296000283FD19DF80810E1B317
:1030D0000020ADF80C000DF10F0220460021FEF794
:1030E0003DFB10B14FF425712CE00DF10F0220468D
:1030F0000021FEF733FB20B903AA20465121FEF739
:103100009FFB9DF80F2043F62F235A434FF4FA7389
:1031100044F6D35CBDF80C1003EB0222C1F2620C42
:10312000A2FB0C23CAB2090A02FA01F101319A0981
:1031300089B2514301F5FA71A1FB0C124FF42571CC
:1031400001EB92112A681144296068B99DF80910B1
:1031500051B16A462046042101F07AFC00992A68A0
:10316000114401F22621296000287FF45AAF296812
:10317000616104B0B0BD000010B582B00C460DF125
:1031800006022821FEF75CFB08B102B010BDBDF8B5
:1031900006104FF2000C0A466FF31F320023ADF801
:1031A0000620CFF6FF7CB3EBD22F18BF41EA0C020A
:1031B000FA215143216002B010BD000080B5633098
:1031C000632800F2AA80DFE810F06400A800A800DD
:1031D000A800A800A800A800A800A800A800A800AF
:1031E000A800A800A800A800A800A800A800A8009F
:1031F000A800A800A800A800A800A800A800A8008F
:10320000A800A800A800A800A800A800A800A8007E
:10321000A800A800A800A800A800A800A800A8006E
:10322000A800A800A800A800A800A8008D00A80079
:10323000A800A800A800A800A800A800A800A8004E
:10324000B000A800A800A800A800A800A800A80036
:10325000A800A800A300A800A800A800A800A80033
:10326000A800A800A800A8008000A800A800A80046
:10327000A800A800A800A8008F00B500BA00E000D0
:10328000D8006B00940085006600BC00D000F600FA
:10329000E8004EA23DE046F67802C0F6000270E07B
:1032A00046F67270C0F27200C1F80B0046F2205070
:1032B000C7F27220886046F62070C7F275404860F9
:1032C00046F65410C6F26D5072E059A208461146F7
:1032D000182277E046F63C02C0F600020846114686
:1032E00014226FE03FA26AE046F27462C0F6000268
:1032F0000FE046F67270C0F27200886042F265001C
:10330000C7F26520486046F25210C6F26E704FE078
:1033100041A208461146162254E046F2BC62C0F6AD
:1033200000020846114613224CE035A20846114619
:10333000172247E046F28C62C0F6000221E042A26A
:1033400017E046F67270C0F27200C86042F2640084
:10335000C7F26520886046F66610C6F26E50486077
:1033600046F65560C6F2645022E046F62802C0F6E2
:10337000000208461146122224E046F65002C0F62A
:1033800000020846114619221CE046F29072C0F66F
:10339000000208461146112214E00020087247F28C
:1033A0007220C7F26F20486046F64E70C4F220507B
:1033B0000860002080BD46F2B072C0F600020846E8
:1033C00011461A22FCF7FCFE002080BD4E6F7420CF
:1033D000696D706C656D656E746564206572726F81
:1033E000720000005265666572656E6365205370F9
:1033F000616420496E6974204572726F720000002A
:103400004469766973696F6E206279207A65726F9C
:10341000204572726F720000496E76616C6964209B
:10342000436F6D6D616E64204572726F72000000B3
:10343000436F6E74726F6C20496E7465726661635F
:1034400065204572726F72004750494F206E6F744D
:10345000206578697374696E670000002DE9F04F8C
:1034600087B016468846DDF8409000250DF11B0216
:1034700000219A4604468DF81B508DF81A508DF89D
:1034800019508DF81850ADF806500095FEF72AF83F
:103490009DF81B1051B148B905AA6B462046494614
:1034A000FEF75EFE00284FF0000564D028B90DF14C
:1034B000190220460221FEF715F89DF819104FF069
:1034C000000BE9B1E0B903AA20460221FEF716F885
:1034D000002866D000286BD0002872D0BDF80610F6
:1034E000039B4A02C4F84821002B1A464FF00007FC
:1034F00018BF0122B3EB412F38BF012702EA070BA7
:1035000020B906AA20460321FDF7ECFF9DF818100C
:10351000002781B178B9BAF1000F1ABF3002B0FBB1
:10352000FAF6002602AA20460321FDF7E7FF0299DA
:103530008E4238BF0127DDF844C00028C8F3C30617
:103540005ED108F06802A2F1280008F06003B6FA24
:1035500086F1B0FA80F0603B49094009B3FA83F381
:1035600008435909084301D0FF2047E0701E032893
:103570002DD2052042E0009804AAA9F80A002046AE
:103580000021FDF7BBFF0499059B00290A4618BFDF
:1035900001228B4288BF0125154000287FF48DAFA2
:1035A00085E72046FF210122FEF70CFD002893D17C
:1035B0000DF106022046B621FEF742F900287FF4FD
:1035C0008DAF2046FF210022FEF7FCFC86E7062E89
:1035D0004FF0040012D0092E10D0A2F14000B0FA32
:1035E00080F0400950EA0B0001D0032006E0284695
:1035F000002F18BF0220042E08BF02208CF8000004
:103600009CF800000DF11A02002804BF0020A9F860
:103610000A0020460121FDF765FF10B107B0BDE8A3
:10362000F08F9DF81B109DF81A20B1FA81F149091D
:10363000294384F82E10311FB1FA81F1B2FA82F2D7
:103640004909520911439DF8192084F82F10B2FA44
:1036500082F149099DF8182041EA0B0184F83010E5
:10366000B2FA82F14909394384F8311007B0BDE854
:10367000F08F000010B582B0144619B1012911D1A4
:10368000702100E050210DF10702FEF7C5F8010698
:1036900005D19DF80710022202EB4101217040B2D2
:1036A00002B010BDFC200106F9D1F2E710B540F6DA
:1036B000014001F0C3FC40F6014001F0BFFC40F2C4
:1036C0000044C4F20204204601210122402301F0FB
:1036D000B9FA204601210222402301F0DDFA2046FA
:1036E00001210122802301F0ADFA204601210222AE
:1036F0008023BDE8104001F0CFBA00002DE9F04F63
:1037000081B00F78002F54D00C46814601F1020A97
:103710000020E846002600BFFF2F06F101020FD16E
:10372000A35CB21C032B23D8DFE803F00235252D60
:10373000C978A25C043641EA0221A9F8341131E0CB
:10374000042F15D83D4614F802B00AEB0601012FEC
:1037500098BF012540462A46FCF732FD7019861CA9
:103760004846594642463B46FEF740FC1AE000BF39
:10377000FC20164616E0C978A25C043641EA022114
:10378000A9F838110EE0C978A25C043641EA02219A
:10379000A9F83C1106E0C978A25C043641EA02218E
:1037A000A9F83611A75D2FB1010604EB0601B3D0CD
:1037B00000E0002040B201B0BDE8F08F70B582B0EB
:1037C000044600208DF807000DF107012046FDF7A3
:1037D000D7FEB8B99DF80710012913D04FF4FA6647
:1037E0000DF10705013E0CD02046FEF705F82046F6
:1037F0002946FDF7C5FE28B99DF807100129F1D12A
:1038000000E0F92040B202B070BD00002DE9F041A7
:1038100082B0044615460F46002B14BF94F8308141
:103820004FF000082046012102221E46FEF7CAFB87
:1038300050B9204600210122FEF7C4FB00284CD0DD
:1038400000284FD0002853D0012D08BF002801D0F8
:10385000002131E000208DF807002046FF210122E1
:10386000FEF7B0FB0546204600210022FEF7AAFB2A
:1038700005432046FF210022FEF7A4FB05430DF17E
:1038800007022046EE21FDF7C7FF05432046FF2132
:103890000122FEF797FB0543204600210122FEF797
:1038A00091FB05432046FF210022FEF78BFB9DF88C
:1038B0000710284301F0EF01397056B1010608D115
:1038C000204601214246FEF77DFB002808BF84F810
:1038D000308140B202B0BDE8F0812046FFF76EFFB4
:1038E0000028AFD120460021FDF712FC0028ABD103
:1038F000204600210022FEF765FBA5E7F0B581B068
:103900001E46174690F830511A460023044600F030
:10391000FBF910B148B101B0F0BD2046394632463E
:103920000023FFF773FF0028F5D1204601212A4626
:10393000FEF748FB002808BF84F8305101B0F0BD05
:103940002DE9F04F8FB08246002093460C460C9034
:10395000BAF83C51CAF82401AAF828015046FF21C0
:103960000122FEF72FFB30B160B190B1C0B1F0B1D0
:1039700000286ED122E050464F210022FEF722FBA4
:103980000028F2D150464E212C22FEF71BFB0028C6
:10399000ECD15046FF210022FEF714FB0028E6D1AF
:1039A0005046B621B422FEF70DFB0028E0D1504668
:1039B00080210022FEF706FB00284AD19AF83061E8
:1039C000504601210122FEF7FDFA38B95046002188
:1039D0004122FEF7F7FA88B1A8B1D0B178BB5046C2
:1039E00001210222FEF7EEFA48BB504600210122D7
:1039F000FEF7E8FAA0B1C0B108BB1BE05046FFF7E4
:103A0000DDFE0028E9D150460021FDF781FB0028AA
:103A1000E4D1504600210022FEF7D4FA78B9DEE75F
:103A20005046FFF7CBFE0028E6D150460021FDF7B7
:103A30006FFB20B9504600210022FEF7C3FA40B9BF
:103A4000504601213246FEF7BDFA002808BF8AF829
:103A5000306100280AF5927900F0C980002800F052
:103A6000DB8000214FF000080A914FF0000E002883
:103A700040F03581BDF82E20AA4280F03081BAF89E
:103A80002811521BADF83810DAF82411CDE9054B96
:103A9000099507920D9102D50799494207910AF5B8
:103AA000957B00214FF0030E0DE000BFB9F8042014
:103AB000D9F8003007910899B646ADF838200D9333
:103AC000002940F00981B8F12F0F089162D94FF019
:103AD000FF3818F1010600F0FE8008F1B40140F251
:103AE000F8228909C2F2000252F82110002918BFF9
:103AF00001210A9A8A4240F0EF80B8F12F0F11D8C5
:103B00004FEAD80008F0070119F80020012303FA52
:103B100001F1114309F800100020B8F12F0F05D969
:103B20000DE000BFCE20B8F12F0F08D85046B021CD
:103B30004A4606237446FEF759FAA646B0460106E1
:103B40000EF1010640F0AC8050460DF12E01744696
:103B500001F0CCF9002840F0A380BDF82E2009998F
:103B6000511A48BF4942099B9A429FD9079A9142EC
:103B70003AD95046B0210DAA0623FEF737FA0D991F
:103B8000BDF83820C9F80010A9F804200121A64684
:103B900096E700BF4FEAD80C002608F00702A6EB14
:103BA000CC034FF0FF3861461BF80140002561450A
:103BB00004BF1546D44000BFE70709D1E7B201357D
:103BC000082D4FEA5704F7D1042907D981E700BF30
:103BD000A5EB0308012604293FF67BAF0131002E37
:103BE000A3F10803E0D074E70121B64668E700209E
:103BF0000321B42306260C900AF595720CAFCDE98B
:103C00000063CDE90201504600214B46049700F0C5
:103C10006BFE00287FF425AFDDF830800DF12E011A
:103C2000504601F063F900284FF000010A917FF43B
:103C30001CAFBDF82E10A9422ED90020A9F804000F
:103C4000C9F8000040F2F820C2F20000B8F12B0FD2
:103C500008F1010107D808F1B402920950F82220B6
:103C60008846002AF2D0A1F101080CA80321B42350
:103C700006270AF59572CDE90073CDE9028104901B
:103C8000504601214B4601270A9700F02DFE4FF0C8
:103C9000000E38B10021EAE64FF0000E0021E6E602
:103CA000B64619E0DDF830800DF12E0150460026B1
:103CB00001F01CF9BDF82E20B0FA80F14909AA42A2
:103CC00088BF012631408E464FF0010218BF4FF0E9
:103CD000030E0A92CBE6CE200A99DDE9054B0206D7
:103CE0000DD1C4F800E08BF80010226801218AF899
:103CF00015118AF813219BF800108AF8141140B2AC
:103D00000FB0BDE8F08F00002DE9F04104461546E4
:103D10000F46002B14BF94F830814FF00008204666
:103D2000012101221E46FEF74DF950B9204600211F
:103D30004122FEF747F9002847D000284AD0002842
:103D40004ED0012D08BF002805D00021397076BB68
:103D500040B2BDE8F0812046FF210122FEF732F992
:103D60000546204600210022FEF72CF90543204697
:103D7000FF210022FEF726F905432046CB213A46D3
:103D8000FDF74AFD05432046FF210122FEF71AF9FF
:103D90000543204600210122FEF714F90543204681
:103DA000FF210022FEF70EF92843002ED0D0010695
:103DB000CED1204601214246FEF704F9002808BF73
:103DC00084F8308140B2BDE8F0812046FFF7F6FC70
:103DD0000028B4D120460021FDF79AF90028B0D17F
:103DE000204600210022FEF7EDF8AAE71346012243
:103DF00000F0FABB10B582B0144601AB042200F00B
:103E0000F3FB019909BA216002B010BD94461A462D
:103E1000634600F0E9BB000010B582B014460DF116
:103E20000603022200F0E0FBBDF8061009BA090CF7
:103E3000218002B010BD00002DE9F04F81B0044692
:103E4000002016460F46DDF834A0DDE90B9B8DF807
:103E500003002046FF2101229846FEF7B3F80546ED
:103E6000204600210022FEF7ADF805432046FF2141
:103E70000022FEF7A7F845EA000597B1BBF1000F55
:103E800005D00A9A2046CB21FDF7C6FC0543BAF1BE
:103E9000000F19D00DF103022046EE21FDF7BCFC06
:103EA00011E0BBF1000F05D02046CB213246FEF7D2
:103EB00089F80543BAF1000F06D02046EE21802292
:103EC0004346FEF759F805432046FF210122FEF73D
:103ED00079F80543204600210122FEF773F80543D7
:103EE0002046FF210022FEF76DF89DF803102843BD
:103EF00001F0EF0189F8001001B0BDE8F08F00007B
:103F000044F6206291423EBFFC2040B2704770B53B
:103F100084B00D46A1F636360DF105010446FDF7D5
:103F2000E3FB40B99DF80510C9B99DF80610B1B979
:103F30009DF8071099B9010640F08C809DF8081093
:103F400000294CD00020ADF80C000DF10F022046E6
:103F50000021FDF703FC80B14FF425713AE0002009
:103F60008DF80A000DF10B0220460021FDF7F6FB4B
:103F7000002841D000286DD145E00DF10F02204608
:103F80000021FDF7EBFB20B903AA20465121FDF7E4
:103F900057FC9DF80F2043F62F235A434FF4FA7332
:103FA00044F6D35CBDF80C1003EB0222C1F2620CA4
:103FB000A2FB0C23CAB2090A02FA01F101319A09E3
:103FC00089B2514301F5FA71A1FB0C124FF425712E
:103FD00001EB9211711A94BF6FF003000E460106B7
:103FE00038D19DF80910A9B3A6F226222046042153
:103FF00001F066F865612DE00DF10A0220464621C8
:10400000FDF70AFC30BB9DF80B2043F62F235A43E3
:104010004FF4FA7344F6D35C9DF80A1003EB0222C6
:10402000C1F2620CA2FB0C2301319A09514301F544
:10403000FA71A1FB0C129DF8051000294FEA9211AC
:1040400006D001F24E22B21A94BF6FF0030016465A
:10405000020604D004B0BDE8704040B270479DF83D
:10406000072022B140F2645202EB410106E09DF8C4
:104070000620002A3FF45FAF01F52571711A94BF45
:104080006FF003000E4656E780B543F20002CFF60C
:10409000F8724CF6184344F6D35C11F5FA2FC8BFFA
:1040A0000A46C0F20703C1F2620C9A42A8BF1A4640
:1040B000A2FB0C3E52FB0CFC4FEA2C124FEA1E13E3
:1040C00002EBDC72002948BF02F580539AB2282126
:1040D000BDE88040FDF780BF80B586B013460A4634
:1040E0000DF1160E0DF117014FF0010CCDE9001E78
:1040F0000021CDF808C0CDF80CC0FFF79DFE06B03A
:1041000080BD00002DE9F04186B014468846FF21AD
:1041100001220546FDF756FFB0B928464F2100227F
:10412000FDF750FF80B928464E212C22FDF74AFFAB
:1041300050B92846FF210022FDF744FF20B9284648
:10414000B621B422FDF73EFF0020A5F82801C5F8EE
:1041500024017CB140F2F8214FF0FF32C2F200019D
:10416000501C2B2806D8B532920951F82220002A7B
:104170000246F5D0B421062705F5927305F5957230
:1041800005AECDE90071CDE9020828462146049626
:1041900000F0AAFB10B106B0BDE8F081012185F85E
:1041A000151185F8138185F8144106B0BDE8F0813A
:1041B0002DE9F04784B0154604460022E8078DF843
:1041C000032007D101290AD0A9B9A5F11300C0B273
:1041D000F92802D2FC209AB99DE001290BD1A5F162
:1041E0000800C0B207286FF0030038BF012238BFB3
:1041F00000202AB98FE000200122002A00F08B80E5
:10420000012912D0002940F07E80A5F10C02062A77
:1042100000F27980DFE802F00477507735776B00A1
:1042200020460E465721182265E0A5F10802062A0D
:1042300069D8DFE802F0046846682B6874002046FD
:104240000F4648211022FDF7BDFE204647210822D7
:10425000FDF7B8FE0646204632210222FDF7B2FEE7
:104260000643204630210C22FDF7ACFE06432046D3
:10427000FF210122FDF7A6FE064320463021302211
:104280006EE020460E465721402234E020460F467D
:1042900048213822FDF796FE204647210822FDF7E7
:1042A00091FE0646204632210322FDF78BFE06438F
:1042B00020463021082247E020460E465721302272
:1042C00019E020460F4648212822FDF77BFE2046B4
:1042D00047210822FDF776FE0646204632210322BA
:1042E000FDF770FE06432046302109222CE02046CF
:1042F0000E4657215022FDF765FE20465621082222
:10430000FDF760FE3146020636D0010600F030812E
:10431000010600F0348140B204B0BDE8F0872046C9
:104320000F4648214822FDF74DFE2046472108222E
:10433000FDF748FE0646204632210322FDF742FEE5
:104340000643204630210722FDF73CFE0643204667
:10435000FF210122FDF736FE0643204630212022B0
:10436000FDF730FE06432046FF210022FDF72AFE1E
:10437000394630430206C8D14FF0FF30012900EB27
:10438000550642D0002953D142F600784FF0000A7A
:104390000DF10B0220460021C0F23A08ADF808A04A
:1043A000FDF7DCF930BB0DF10B0220460021FDF7D3
:1043B000D5F920B902AA20465121FDF741FA9DF80E
:1043C0000B1044F6D35301FB08F1BDF8082001F5AA
:1043D000FA71C1F26203A1FB0317D1B2120A914034
:1043E0000131BA0989B2514301F5FA71A1FB0312F7
:1043F0004FEA921A4FF00009F8B1002847D0002880
:104400004CD0002840F0AF8085E001AA204604216E
:1044100000F01EFB20B9F2B220467021FDF7D2FD5C
:1044200020B9019A2046042100F04AFEE0219BE0D9
:10443000FC2001067FF46CAF9AE00DF10D022046DE
:1044400000218DF80C90FDF789F920B903AA2046C8
:104450004621FDF7E1F99DF80D1044F6D35301FB19
:1044600008F19DF80C2001F5FA71C1F26203A1FB7D
:104470000317511CBA09514301F5FA71A1FB03124C
:1044800091094FF47A7201FB02F90028B7D1F2B218
:1044900020465021FDF796FD0028B2D10DF10E0205
:1044A000204600210026FDF759F99DF80E1044F62C
:1044B000D35201FB08F101F5FA71C1F262024FF427
:1044C0007A73A1FB02120AFB03F3910903EBD212E8
:1044D000B2FBF1F18AB28AB1511EB2F5807F4FF082
:1044E00000020AD9002300BFB2EB512F4FEA51015D
:1044F00003F10103F8D19AB212025618A4F8D86059
:1045000020B9B2B220465121FDF766FD002808BF50
:10451000C4F8E4A038BB0DF10F0220460021FDF7DE
:104520001DF9D0B99DF80F1044F6D35201FB08F1E4
:1045300001F5FA71C1F26202A1FB0212910909EBC5
:10454000D212B2FBF1F18AB20139B2F5807F88BF95
:104550004FF0FF31CAB2A4F8D82020B9CAB2204621
:104560004621FDF72FFDE821655401067FF4D0AE0A
:1045700061692046FDF7E2FA01067FF4CCAE0DF149
:104580000301204600220123FFF740F9C3E60000A3
:1045900080B582B08DF807200DF10703012200F0ED
:1045A00075F802B080BD000094461A46634600F0DC
:1045B0006DB8000070B582B052BACB07ADF80620D6
:1045C00001D1022409E00DF10603012205460E4641
:1045D000012400F05BF8284631460DF1060322461F
:1045E00000F054F802B070BDF0B581B01C4615461D
:1045F0000F460646FCF7C4F93046FCF7C3FAFCF751
:1046000021F908B101241AE03846FCF7BBFAFCF79F
:1046100019F9FCF7B5F946F00100FCF7B3FAFCF71D
:1046200011F905E00020FCF775FA04F8010B013DD3
:10463000A8B20128F6D008B10120F4E7002440F226
:104640000045C4F20205284601210122802300F022
:10465000F9FA28464021002200F0E8FA2846802195
:10466000002200F0E3FA28464021012200F0DEFAA1
:10467000052000F061F828468021012200F0D6FADA
:10468000052000F059F8204601B0F0BDF0B581B02A
:104690001D4614460E460746FCF772F93846FCF7ED
:1046A00071FAFCF7CFF808B1012411E03046FCF7AD
:1046B00069FAFCF7C7F854B1013D00BF15F8010FC6
:1046C000013CFCF75FFAFCF7BDF82004F6D10024AA
:1046D00040F20045C4F20205284601210122802350
:1046E00000F0B0FA28464021002200F09FFA284648
:1046F0008021002200F09AFA28464021012200F091
:1047000095FA052000F018F828468021012200F0D3
:104710008DFA052000F010F8204601B0F0BD000031
:104720004FF47A71414340F22830C2F20000016038
:1047300001680029FCD1704740F22831C2F2000123
:10474000086000BF08680028FCD1704740F2307054
:10475000C2F2000001680131016040F22830C2F26B
:1047600000000168002908BF704701680139016035
:104770007047000001EB410100EBC100016921F02D
:10478000010101617047000001EB410100EBC10034
:10479000016941F0010101617047000001EB410135
:1047A00000EBC100016921F0606141EA42610161F1
:1047B0007047000001EB410200EBC20213694FF0A9
:1047C0003D0C23F0010313610023136153619361D6
:1047D000D3611362212353620A1F28BFD1B201EBB8
:1047E000410301F002014FF00C024FEA410138BFD2
:1047F000082201EB430113580CFA01F1194311503F
:10480000704700000B1F38BF0B46D9B24FEA410179
:1048100051FA83F103F002034FF00C0C4FEA43030B
:1048200038BF4FF0080C03EB41015CF8003002FA8E
:1048300001F119434CF800107047000080B501EBFE
:10484000410100EBC100416A48F23F7321F00401CD
:1048500041621168CFF6FC7381619168C161D169D1
:1048600041610169D2F818E001EA030C116A136989
:1048700041EA0C0141EA830141EA0E011943016159
:1048800053680169012B06D0002B14BF41F400418D
:1048900041F4007101E021F400710161D168036904
:1048A000002923F4806308BF03F580630361516925
:1048B0000269002922F4807208BF02F58072026149
:1048C00080BD000000210122C0E90012C0E90212EF
:1048D000C0E90412C0E906110162704701EB410111
:1048E00000EBC100406970472DE9F04F85B010AF73
:1048F0001C4602918ACF0E9E8046002B4FF000008E
:1049000018BF01236CD0CDE9008408E01199013073
:1049100088424FF00003614638BF01235BD0B6EBFD
:10492000D10F2BD94FEAD1094FF0000E01F0070843
:10493000AEEBC90A4FF0FF37CC4600BF12F80C406F
:104940000025CC4504BF454624FA08F45FEAC47B41
:1049500006D1E4B20135082D4FEA5404F6D103E044
:10496000A5EB0A074FF0010E0CF1010CB44507D27C
:10497000BEF1000FAAF1080AE0D001E04FF0FF37C6
:1049800017F1010C1ED01D460B460F997C1840F202
:10499000F821A409C2F2000151F82440002C18BFEC
:1049A000012402998C420FD1B6EBD70FAED9019CEE
:1049B000F90807F00703675C012505FA03F33B4399
:1049C0006354A3E7CE2008E0DDE90084129FCE20E7
:1049D00019462B4604E061460020DDE90084129F61
:1049E000DA07396005D14046B02122460623FDF79B
:1049F000FDFA010603D040B205B0BDE8F08F0DF11D
:104A00000E024046B0210623FCF724FF002EF2D010
:104A10000DF10E0114F8012B11F8013B9A4202D15D
:104A2000013EF7D1E7E7CE20E5E70000B0B541F25F
:104A30000005C4F201050446C1B2284600F0ECFEB0
:104A40002846072100F06AFF0028F9D02046B0BDB3
:104A500070B584B014460546002002298DF80E007A
:104A6000ADF80C0020D80DF10F0228460021FCF70C
:104A700075FE28B90DF10E0228464621FCF7CCFE42
:104A80009DF80F2043F62F235A434FF4FA7303EB9C
:104A9000022244F6D3539DF80E10C1F26203A2FB2A
:104AA00003260131B20980E004292ED0032940D128
:104AB0000DF10F02284600210026FCF74FFE0028CA
:104AC00079D10DF10F0228460021FCF747FE20B9ED
:104AD00003AA28465121FCF7B3FE9DF80F2043F6A8
:104AE0002F235A434FF4FA7303EB022244F6D353B5
:104AF000BDF80C10C1F26203A2FB0326CAB2090A78
:104B000002FA01F10131B2094EE00DF1050128462A
:104B1000FCF7EAFD9DF8080068B10DF10F02284688
:104B200000210026FCF71AFE50B1B8B1F0B1002107
:104B300029E000263FE0002000260028F6D10DE005
:104B400003AA28465121FCF77BFEBDF80C10CAB21F
:104B5000090A02FA01F1CE430028E7D10DF10F0254
:104B600028460121FCF7FAFD0028E0D10DF10A02E8
:104B700028467121FCF764FEBDF80A10CAB2090A82
:104B800002FA01F101319DF80F2043F62F235A4319
:104B90004FF4FA7303EB022244F6D353C1F26203DB
:104BA000A2FB03253144AA0989B2514301F5FA71E8
:104BB000A1FB03129609266004B070BDF0B5D0F8D1
:104BC00020E0D0F824C000230F27002505E000BF17
:104BD0000135082D03F104030CD022FA05F6F6077F
:104BE000F6D007FA03F62EEA060601FA03F446EABF
:104BF000040EEDE7082300240F2504E00133102BF9
:104C000004F104040CD022FA03F6F607F6D005FAF4
:104C100004F62CEA060701FA04F647EA060CEDE76B
:104C2000C0F820E0C0F824C0F0BD00001823002A1E
:104C300008BF2823195070470069084018BF012099
:104C4000704700002DE9F041D0F800E0D0F80CC02A
:104C500000244FF00308002605E000BF0136102EA7
:104C600004F1020412D023FA06F7FF07F6D008FA7F
:104C700004F72EEA070E01FA04F54EEA050E2CEAB7
:104C8000070702FA04F547EA050CE7E7C0F800E079
:104C9000C0F80CC0BDE8F0810129416814BF9943F8
:104CA00019434160B0B5D0F808C000214FF0030EA1
:104CB000002404E00134102C01F102010CD023FA8D
:104CC00004F5ED07F6D00EFA01F52CEA050C02FA10
:104CD00001F54CEA050CEDE7C0F808C0B0BD0000D6
:104CE0004FF4A06000F0F8F800F0D4FAFCF73AF9BD
:104CF000FCF7A8F8FBF772FEFBF77CFF6420FFF7D8
:104D00000FFD32A001F03EFC9FED320AFBF774FF6D
:104D10004FF4A06000F0E0F82FA001F033FC40F267
:104D20005070C2F2000000F0A5FE80B140F2507554
:104D30002BA4C2F2000500BF204600F0A9FF6420AA
:104D4000FFF7EEFC284600F095FE0028F4D129A0DC
:104D500001F018FC40F25070C2F20000002100F097
:104D6000F9FE88B140F2507525A4C2F2000500BFDB
:104D7000204601F007FC6420FFF7D2FC2846002102
:104D800000F0E8FE0028F3D140F2507440F2347590
:104D9000C2F20004C2F2000522A61DA707E000BF70
:104DA0000146384600F074FF6420FFF7B9FCFBF7BA
:104DB0004FFE0A20FFF7B4FC20462946FCF7DAFC38
:104DC0000028EDD129893046ECE700BF696E69748F
:104DD000000000000000B44273746172740D0000A2
:104DE000564C35334C3058204572726F7221212158
:104DF0000A0D0000564C35334C3058204F4B0D00F7
:104E00004D6F646520536574204572726F720D009A
:104E1000564C35334C3058206572726F723A2025EB
:104E2000640A0000643A202534696D6D0D0A0000A3
:104E30004EF60C5CCEF2000CDCF8003003F4E063BC
:104E4000B3F5E06F01D1042322E0DCF8003003F475
:104E5000E063B3F5C06F01D1032319E0DCF8003043
:104E600003F4E063B3F5A06F01D1022310E0DCF896
:104E7000003003F4E063B3F5806F01D1012307E054
:104E8000DCF8003003F4E063B3F5407F1CD100236D
:104E900001FA03FCC3F104030F21D94011404EF283
:104EA000001241EA0C01CEF20002090140EA0203BD
:104EB00083F8001300F01F01012303FA01F11C2302
:104EC00003EAD0008150704740F20053C0F2FA5319
:104ED000CCF80030C9E7000040F080604EF60C517D
:104EE00040F0FD70CEF200010860704770B588B0E8
:104EF00090F830510E460121C0220446FDF762F8B9
:104F000028B150B180B1B0B1E0B108B070BD01A915
:104F10002046FCF72FFC0028F4D12046FF21012277
:104F2000FDF750F80028EED12046B6213246FCF7B6
:104F300087FC0028E8D12046FF210022FDF742F837
:104F40000028E2D1204601212A46FDF73BF800283F
:104F500008BF84F8305108B070BD0000B0B588B00B
:104F60006D4629460446FCF735FB46F2B050C0F6C4
:104F7000000021462A4600F08BFE08B0B0BD0000BC
:104F800010B543F60402C4F2020253680146C3F3AB
:104F9000810342F20040022BC0F2F40006D0012B44
:104FA0001FD141F20020C0F27A001AE0D2F800C00E
:104FB00013680CF03F0CC3F3881E13681468C3F326
:104FC0000143640241F20024C0F27A0458BF04464F
:104FD000B4FBFCF4022000EB430004FB0EF3B3FB34
:104FE000F0F0536811A4C3F30313E35C546846F272
:104FF000A85CC4F38224C0F6000C1CF804E05268DC
:10500000032911D820FA03F3DFE801F00D020407A9
:10501000184610BD23FA0EF010BDC2F342301CF842
:10502000000023FA00F010BD002010BD00000000B9
:1050300000000000010203040607080943F600030C
:1050400000F01F018009C4F202034FF0010CC258A6
:105050000CFA01F11143C1507047000043F6000300
:1050600000F01F018009C4F202034FF0010CC25886
:105070000CFA01F122EA0101C150704743F6000326
:1050800000F01F018009C4F202034FF0010CC25866
:105090000CFA01F11143C1507047000043F68C0C2B
:1050A000C4F2020CDCF800206FF0807142EA0003C9
:1050B000884208BF22F08073CCF8003070470000AF
:1050C00070B584B01546022904460BD80DF10F02C5
:1050D00020460021FCF742FB002848D0002840F081
:1050E000D68067E004296BD003297DD10DF10F0232
:1050F000204600210026FCF731FB9DF80F1043F6F7
:105100002F2251434FF4FA7202EB012144F6D3529D
:10511000C1F262024FF47A73A1FB02126B43910950
:1051200003EBD212B2FBF1F18AB28AB1511EB2F591
:10513000807F4FF000020AD9002300BFB2EB512F4D
:105140004FEA510103F10103F8D19AB21202561845
:10515000ADF80C60A4F8D86020B9B2B22046512155
:10516000FCF73AFF002808BFC4F8E4508FE09DF830
:105170000F1043F62F2251434FF4FA7202EB012134
:1051800044F6D352C1F262024FF47A73A1FB0212C9
:105190006B43910903EBD212B2FBF1F18AB20139F0
:1051A000B2F5807F88BF4FF0FF31CAB2A4F8D82093
:1051B00000286CD1CAB220464621FCF703FF66E006
:1051C0000DF107012046FCF78FFA9DF80A0068B13F
:1051D0000DF10F02204600210026FCF7BFFA50B166
:1051E000C0B1002853D11CE0FC2050E00026002074
:1051F0000028F6D10EE003AA20465121FCF720FB3F
:10520000BDF80C10CAB2090A02FA01F101318EB2DE
:105210000028E6D10DF10F0220460121FCF79EFA8D
:10522000A8BB9DF80F0043F62F2148434FF4FA71B5
:1052300001EB002044F6D351C1F262014FF47A72BF
:10524000A0FB01016A43880902EBD111B1FBF0F028
:10525000811912D0481EB1F5807F4FF000010AD9A4
:10526000002200BFB1EB502F4FEA500002F10102C3
:10527000F8D191B20902084400E0002082B2204631
:105280007121FCF7A9FE002808BFC4F8DC5040B229
:1052900004B070BD40F2F020C2F2000000684DF68C
:1052A0008361C4F21B31A0FB01014FF0FF3000EB22
:1052B0009140B0F1807F11D24EF21001CEF2000188
:1052C00048604EF62350CEF20000F0220270002219
:1052D00007238A600B600270704700BFFEE7000082
:1052E000032988BF704780B5DFE801F002B042872C
:1052F000016A21F001010162816921F003018161EC
:105300001188036A19430162016A002321F0020136
:105310000162B2F804C0D0F820E020F48061C4F249
:10532000010399424EEA0C01016240F0D480016A07
:1053300021F0040101625188036A19430162016A84
:1053400021F008010162D188036A1943016240F02B
:105350000400016821F48071016011890368194318
:105360000160016821F40071016051890268B0E0B8
:10537000016A21F480710162C16921F00301C161F8
:105380001188036A43EA01210162016A002321F4C2
:1053900000710162B2F804C0D0F820E020F480610E
:1053A000C4F2010399424EEA0C21016240F093805D
:1053B000016A21F4806101625188036A43EA012194
:1053C0000162016A21F400610162D188036A43EA43
:1053D0000121016240F00400016821F48051016064
:1053E0001189036843EA01110160016821F4005149
:1053F00001605289016812016BE0016A21F4805159
:105400000162C16921F44071C1611188036A43EAF4
:1054100001310162016A002321F400510162B2F8F6
:1054200004C0D0F820E020F48061C4F20103994266
:105430004EEA0C3101624ED140F00400016821F4C3
:105440008041016012890168920142E0016A21F005
:1054500010010162816921F4407181611188036A40
:1054600043EA01110162016A002321F02001016277
:10547000B2F804C0D0F820E020F48061C4F2010347
:1054800099424EEA0C11016225D1016A21F04001D6
:1054900001625188036A43EA01110162016A21F045
:1054A00080010162D188036A43EA0111016240F080
:1054B0000400016821F4806101601189036843EAF6
:1054C00081010160016821F4006101605289016875
:1054D000920011430160BDE880407047032988BFF6
:1054E0007047DFE801F0020D050A50F8181F01E0CF
:1054F00050F81C1F21F0700107E050F81C1F01E05C
:1055000050F8181F21F4E0411202016001681143B4
:105510000160704703299EBF890010FA81F0426341
:105520007047000000218160416001607047000009
:1055300010B541F6FF31C4F2000188421BDC40F691
:10554000FF31C4F20001884230DD41F2FF31C4F284
:105550000001884250DC40F60041C4F2000188425C
:1055600069D041F20001C4F20001884240F082801B
:1055700040F6040476E040F2FF31C4F201018842B3
:1055800026DD44F2FF31C4F20101884243DC40F2DF
:105590000041C4F20101884250D044F20001C4F23B
:1055A0000101884266D14FF411645BE0B0F1804F95
:1055B0004DD040F20041C4F2000188424DD040F687
:1055C0000001C4F20001884254D140F6020449E0CF
:1055D00041F60041C4F2000188423BD042F2000192
:1055E000C4F2000188423BD00021C4F2010188428C
:1055F00040D14FF4106435E041F20041C4F20001A3
:1056000088421ED041F60001C4F20001884231D127
:1056100040F6060426E044F20041C4F2010188424B
:1056200012D044F60001C4F20101884218BF10BD37
:1056300040F6121416E040F6030413E040F601149D
:1056400010E040F605040DE040F611140AE04FF4B6
:10565000006407E040F6070404E040F6010401E0BE
:1056600040F608042046FFF709FD2046BDE810403B
:10567000FFF7F4BC10BD0000016841F001010160BA
:10568000704700000A8840F2004C826240F6FF3208
:10569000C4F200029042C4F2010C0FDCB0F1804F62
:1056A00019D040F20043C4F20003984213D040F6F0
:1056B0000003C4F2000398420DD018E040F6004306
:1056C000C4F20003984206D0604504D00023C4F21F
:1056D000010398420BD1036823F0700303604B88E9
:1056E00002681A4302608A8803681A43026080B520
:1056F00041F20002D1F808E020F48063C4F2000215
:105700009342C0F82CE007D0026822F44072026095
:10571000CA8803681A43026040F48062624504BF8D
:10572000097B0163416941F00101416180BD0000D5
:1057300000214FF6FF72C0E90011826001737047CB
:10574000B0B5044647F2FF70C4F200000D46844233
:105750004FF000000EDC44F6FF31C4F200018C4231
:1057600017DC44F20041C4F200018C421DD044F623
:10577000000116E040F6FF71C4F201018C422FDCFB
:1057800047F60001C4F200018C420ED047F60041FA
:1057900007E044F60041C4F200018C4205D045F216
:1057A0000001C4F200018C4203D102210846FFF738
:1057B000E7FBE168090406D400EB5500B0FBF5F007
:1057C00080B2A060B0BD400000EB5500B0FBF5F02A
:1057D0004FF6F0710140C0F342000844A060B0BD34
:1057E00041F20001C4F201018C424FF00301DDD00F
:1057F00041F20042C4F201029442D7D0D9E700003E
:10580000D0F8802022F400621143C0F88010704765
:1058100040686FF35F2070476FF35F21416070470E
:1058200010B547F2FF71C4F20001884214DC44F65F
:10583000FF31C4F20001884224DC44F20041C4F28A
:10584000000188423CD044F60001C4F200018842C5
:1058500049D140F612043EE040F6FF71C4F2010166
:1058600088421EDC47F60001C4F2000188422AD0BB
:1058700047F60041C4F20001884218BF10BD40F64F
:105880001F0428E044F60041C4F2000188421DD004
:1058900045F20001C4F20001884224D140F614040C
:1058A00019E041F20001C4F20101884211D041F235
:1058B0000041C4F20101884215D140F605140AE006
:1058C00040F6110407E040F61E0404E040F613041D
:1058D00001E040F604142046FFF7D0FB2046BDE867
:1058E0001040FFF7BBBB10BD426901F0400122F040
:1058F000400242614269114341617047426901F0CF
:10590000800122F080024261426911434161704787
:10591000C16841F40051C160704700008A09105805
:1059200001F01F01C84000F00100704701F01F02A4
:1059300089094FF0010C0B580CFA02F21A430A5075
:1059400070470000C1F3891252F800C08A0D105848
:1059500001F01F03C1F30441C8402CFA03F10840D1
:1059600000F0010070470000C26822F4C062C2600B
:10597000C2681143C1607047C26822F0040211433B
:10598000C1607047026922F440520261026911430A
:1059900001617047C26822F008021143C16070477C
:1059A000C26822F48052C260C2681143C16070476D
:1059B000F0B589B0054690F85C01884201D1002419
:1059C0001CE00E462846882100220027FCF7FAFA40
:1059D000B8B10446012564B101AE20463146FBF75B
:1059E000F9FD46F2B050C0F600002146324600F004
:1059F0004FF91FB91CA0294600F04AF9204609B00A
:105A0000F0BD0DF102022846C021FBF719FF044644
:105A100020B102250027002CDED1EAE7BDF8020004
:105A20004EF6AA61884207D128463146FBF724FF8B
:105A300038B104460325EDE700250127002CCBD122
:105A4000D7E70DF102022846C02185F85C61FBF71B
:105A5000F7FE0446B4FA84F1002818BF01204F096C
:105A60008500002CB8D1C4E77374613A307825788A
:105A70000D0A000070B588B0044640F60140FFF7FB
:105A8000DDFA40F20045C4F2020528460121012258
:105A900010230126FFF7D6F8284601210222102301
:105AA000FFF7FAF840F25210C0F29010C4F85C010F
:105AB000FDF7FCFD48F29025C4F240250020286047
:105AC0001E20FEF72DFE1E202E60FEF729FE20462A
:105AD0005421FFF76DFF2046FBF744FB054650B904
